{
  "_format": "hh-sol-artifact-1",
  "contractName": "AuthenticateSCManager",
  "sourceName": "contracts/impl/common/AuthenticateSCManager.sol",
  "abi": [
    {
      "anonymous": false,
      "inputs": [
        {
          "indexed": true,
          "internalType": "address",
          "name": "previousOwner",
          "type": "address"
        },
        {
          "indexed": true,
          "internalType": "address",
          "name": "newOwner",
          "type": "address"
        }
      ],
      "name": "OwnershipTransferred",
      "type": "event"
    },
    {
      "inputs": [
        {
          "internalType": "address",
          "name": "contractAddress",
          "type": "address"
        },
        {
          "internalType": "uint256",
          "name": "tokenId",
          "type": "uint256"
        },
        {
          "internalType": "uint256",
          "name": "expireTime",
          "type": "uint256"
        }
      ],
      "name": "addExpireTime",
      "outputs": [],
      "stateMutability": "nonpayable",
      "type": "function"
    },
    {
      "inputs": [
        {
          "internalType": "address",
          "name": "contractAddress",
          "type": "address"
        }
      ],
      "name": "authenticated",
      "outputs": [
        {
          "internalType": "bool",
          "name": "authentic",
          "type": "bool"
        },
        {
          "internalType": "uint256",
          "name": "maxActiveNum",
          "type": "uint256"
        }
      ],
      "stateMutability": "view",
      "type": "function"
    },
    {
      "inputs": [
        {
          "internalType": "address",
          "name": "contractAddress",
          "type": "address"
        },
        {
          "internalType": "uint256",
          "name": "tokenId",
          "type": "uint256"
        }
      ],
      "name": "expireTime",
      "outputs": [
        {
          "internalType": "uint256",
          "name": "",
          "type": "uint256"
        }
      ],
      "stateMutability": "view",
      "type": "function"
    },
    {
      "inputs": [
        {
          "internalType": "address",
          "name": "contractAddress",
          "type": "address"
        },
        {
          "internalType": "uint256",
          "name": "tokenId",
          "type": "uint256"
        }
      ],
      "name": "expired",
      "outputs": [
        {
          "internalType": "bool",
          "name": "",
          "type": "bool"
        }
      ],
      "stateMutability": "view",
      "type": "function"
    },
    {
      "inputs": [
        {
          "internalType": "address",
          "name": "contractAddress",
          "type": "address"
        }
      ],
      "name": "nftType",
      "outputs": [
        {
          "internalType": "uint256",
          "name": "",
          "type": "uint256"
        }
      ],
      "stateMutability": "view",
      "type": "function"
    },
    {
      "inputs": [],
      "name": "owner",
      "outputs": [
        {
          "internalType": "address",
          "name": "",
          "type": "address"
        }
      ],
      "stateMutability": "view",
      "type": "function"
    },
    {
      "inputs": [
        {
          "internalType": "address",
          "name": "contractAddress",
          "type": "address"
        },
        {
          "internalType": "uint256",
          "name": "tokenId",
          "type": "uint256"
        },
        {
          "internalType": "uint256",
          "name": "period",
          "type": "uint256"
        }
      ],
      "name": "postpone",
      "outputs": [],
      "stateMutability": "nonpayable",
      "type": "function"
    },
    {
      "inputs": [
        {
          "internalType": "address",
          "name": "contractAddress",
          "type": "address"
        },
        {
          "internalType": "uint256",
          "name": "tokenId",
          "type": "uint256"
        }
      ],
      "name": "queryPrice",
      "outputs": [
        {
          "internalType": "uint256",
          "name": "price",
          "type": "uint256"
        }
      ],
      "stateMutability": "view",
      "type": "function"
    },
    {
      "inputs": [
        {
          "internalType": "address",
          "name": "contractAddress",
          "type": "address"
        },
        {
          "internalType": "uint256",
          "name": "maxActiveNum",
          "type": "uint256"
        }
      ],
      "name": "registerAuthentic",
      "outputs": [],
      "stateMutability": "nonpayable",
      "type": "function"
    },
    {
      "inputs": [
        {
          "internalType": "address",
          "name": "contractAddress",
          "type": "address"
        },
        {
          "internalType": "uint256",
          "name": "tokenId",
          "type": "uint256"
        },
        {
          "internalType": "uint256",
          "name": "price",
          "type": "uint256"
        }
      ],
      "name": "registerPrice",
      "outputs": [],
      "stateMutability": "nonpayable",
      "type": "function"
    },
    {
      "inputs": [
        {
          "internalType": "address",
          "name": "contractAddress",
          "type": "address"
        },
        {
          "internalType": "uint256",
          "name": "nftType",
          "type": "uint256"
        },
        {
          "internalType": "uint256",
          "name": "price",
          "type": "uint256"
        }
      ],
      "name": "registerWhitelist",
      "outputs": [],
      "stateMutability": "nonpayable",
      "type": "function"
    },
    {
      "inputs": [
        {
          "internalType": "address",
          "name": "contractAddress",
          "type": "address"
        }
      ],
      "name": "removeAuthenticate",
      "outputs": [],
      "stateMutability": "nonpayable",
      "type": "function"
    },
    {
      "inputs": [
        {
          "internalType": "address",
          "name": "contractAddress",
          "type": "address"
        }
      ],
      "name": "removeWhitelist",
      "outputs": [],
      "stateMutability": "nonpayable",
      "type": "function"
    },
    {
      "inputs": [],
      "name": "renounceOwnership",
      "outputs": [],
      "stateMutability": "nonpayable",
      "type": "function"
    },
    {
      "inputs": [
        {
          "internalType": "address",
          "name": "newOwner",
          "type": "address"
        }
      ],
      "name": "transferOwnership",
      "outputs": [],
      "stateMutability": "nonpayable",
      "type": "function"
    },
    {
      "inputs": [
        {
          "internalType": "address",
          "name": "contractAddress",
          "type": "address"
        }
      ],
      "name": "whitelisted",
      "outputs": [
        {
          "internalType": "bool",
          "name": "authentic",
          "type": "bool"
        }
      ],
      "stateMutability": "view",
      "type": "function"
    }
  ],
  "bytecode": "0x608060405234801561001057600080fd5b5061002d61002261003260201b60201c565b61003a60201b60201c565b6100fe565b600033905090565b60008060009054906101000a900473ffffffffffffffffffffffffffffffffffffffff169050816000806101000a81548173ffffffffffffffffffffffffffffffffffffffff021916908373ffffffffffffffffffffffffffffffffffffffff1602179055508173ffffffffffffffffffffffffffffffffffffffff168173ffffffffffffffffffffffffffffffffffffffff167f8be0079c531659141344cd1fd0a4f28419497f9722a3daafe3b4186f6b6457e060405160405180910390a35050565b6121ae806200010e6000396000f3fe608060405234801561001057600080fd5b50600436106101005760003560e01c8063715018a611610097578063d9a1693b11610066578063d9a1693b14610295578063e336afb0146102c6578063ed2584a0146102f6578063f2fde38b1461031257610100565b8063715018a61461022157806378c8cda71461022b5780638da5cb5b14610247578063d936547e1461026557610100565b806349b37ae5116100d357806349b37ae5146101895780634c32f731146101b95780635678cf22146101d55780635f2bc38b1461020557610100565b8063071931a7146101055780630a4c3537146101215780630d9df7211461013d5780632d7a8de21461016d575b600080fd5b61011f600480360381019061011a91906117a1565b61032e565b005b61013b60048036038101906101369190611804565b610446565b005b61015760048036038101906101529190611857565b6106eb565b60405161016491906118b2565b60405180910390f35b61018760048036038101906101829190611804565b610860565b005b6101a3600480360381019061019e9190611857565b6109d1565b6040516101b091906118dc565b60405180910390f35b6101d360048036038101906101ce9190611804565b610ab0565b005b6101ef60048036038101906101ea91906117a1565b610c64565b6040516101fc91906118dc565b60405180910390f35b61021f600480360381019061021a9190611804565b610d31565b005b610229610edd565b005b610245600480360381019061024091906117a1565b610ef1565b005b61024f61100b565b60405161025c9190611906565b60405180910390f35b61027f600480360381019061027a91906117a1565b611034565b60405161028c91906118b2565b60405180910390f35b6102af60048036038101906102aa91906117a1565b6110c8565b6040516102bd929190611921565b60405180910390f35b6102e060048036038101906102db9190611857565b611118565b6040516102ed91906118dc565b60405180910390f35b610310600480360381019061030b9190611857565b6113f1565b005b61032c600480360381019061032791906117a1565b61154e565b005b6103366115d1565b61033f8161164f565b61037e576040517f08c379a0000000000000000000000000000000000000000000000000000000008152600401610375906119a7565b60405180910390fd5b6000600160008373ffffffffffffffffffffffffffffffffffffffff1673ffffffffffffffffffffffffffffffffffffffff1681526020019081526020016000205411610400576040517f08c379a00000000000000000000000000000000000000000000000000000000081526004016103f790611a39565b60405180910390fd5b600160008273ffffffffffffffffffffffffffffffffffffffff1673ffffffffffffffffffffffffffffffffffffffff1681526020019081526020016000206000905550565b826000600260008373ffffffffffffffffffffffffffffffffffffffff1673ffffffffffffffffffffffffffffffffffffffff16815260200190815260200160002054116104c9576040517f08c379a00000000000000000000000000000000000000000000000000000000081526004016104c090611acb565b60405180910390fd5b6104d28461164f565b610511576040517f08c379a0000000000000000000000000000000000000000000000000000000008152600401610508906119a7565b60405180910390fd5b3073ffffffffffffffffffffffffffffffffffffffff1663d936547e856040518263ffffffff1660e01b815260040161054a9190611906565b602060405180830381865afa158015610567573d6000803e3d6000fd5b505050506040513d601f19601f8201168201806040525081019061058b9190611b17565b6105ca576040517f08c379a00000000000000000000000000000000000000000000000000000000081526004016105c190611b90565b60405180910390fd5b6003600260008673ffffffffffffffffffffffffffffffffffffffff1673ffffffffffffffffffffffffffffffffffffffff16815260200190815260200160002054101561064d576040517f08c379a000000000000000000000000000000000000000000000000000000000815260040161064490611bfc565b60405180910390fd5b60008311610690576040517f08c379a000000000000000000000000000000000000000000000000000000000815260040161068790611c68565b60405180910390fd5b81600460008673ffffffffffffffffffffffffffffffffffffffff1673ffffffffffffffffffffffffffffffffffffffff16815260200190815260200160002060008581526020019081526020016000208190555050505050565b6000826000600260008373ffffffffffffffffffffffffffffffffffffffff1673ffffffffffffffffffffffffffffffffffffffff1681526020019081526020016000205411610770576040517f08c379a000000000000000000000000000000000000000000000000000000000815260040161076790611acb565b60405180910390fd5b6000600560008673ffffffffffffffffffffffffffffffffffffffff1673ffffffffffffffffffffffffffffffffffffffff16815260200190815260200160002060008581526020019081526020016000205411610803576040517f08c379a00000000000000000000000000000000000000000000000000000000081526004016107fa90611cd4565b60405180910390fd5b42600560008673ffffffffffffffffffffffffffffffffffffffff1673ffffffffffffffffffffffffffffffffffffffff168152602001908152602001600020600085815260200190815260200160002054111591505092915050565b826000600260008373ffffffffffffffffffffffffffffffffffffffff1673ffffffffffffffffffffffffffffffffffffffff16815260200190815260200160002054116108e3576040517f08c379a00000000000000000000000000000000000000000000000000000000081526004016108da90611acb565b60405180910390fd5b6000600560008673ffffffffffffffffffffffffffffffffffffffff1673ffffffffffffffffffffffffffffffffffffffff16815260200190815260200160002060008581526020019081526020016000205414610976576040517f08c379a000000000000000000000000000000000000000000000000000000000815260040161096d90611d40565b60405180910390fd5b81600560008673ffffffffffffffffffffffffffffffffffffffff1673ffffffffffffffffffffffffffffffffffffffff16815260200190815260200160002060008581526020019081526020016000208190555050505050565b6000826000600260008373ffffffffffffffffffffffffffffffffffffffff1673ffffffffffffffffffffffffffffffffffffffff1681526020019081526020016000205411610a56576040517f08c379a0000000000000000000000000000000000000000000000000000000008152600401610a4d90611acb565b60405180910390fd5b600560008573ffffffffffffffffffffffffffffffffffffffff1673ffffffffffffffffffffffffffffffffffffffff16815260200190815260200160002060008481526020019081526020016000205491505092915050565b610ab86115d1565b610ac18361164f565b610b00576040517f08c379a0000000000000000000000000000000000000000000000000000000008152600401610af7906119a7565b60405180910390fd5b6000600260008573ffffffffffffffffffffffffffffffffffffffff1673ffffffffffffffffffffffffffffffffffffffff1681526020019081526020016000205414610b82576040517f08c379a0000000000000000000000000000000000000000000000000000000008152600401610b7990611dac565b60405180910390fd5b60018203610bce5760008114610bcd576040517f08c379a0000000000000000000000000000000000000000000000000000000008152600401610bc490611e3e565b60405180910390fd5b5b81600260008573ffffffffffffffffffffffffffffffffffffffff1673ffffffffffffffffffffffffffffffffffffffff1681526020019081526020016000208190555060028203610c5f5780600360008573ffffffffffffffffffffffffffffffffffffffff1673ffffffffffffffffffffffffffffffffffffffff168152602001908152602001600020819055505b505050565b6000816000600260008373ffffffffffffffffffffffffffffffffffffffff1673ffffffffffffffffffffffffffffffffffffffff1681526020019081526020016000205411610ce9576040517f08c379a0000000000000000000000000000000000000000000000000000000008152600401610ce090611acb565b60405180910390fd5b600260008473ffffffffffffffffffffffffffffffffffffffff1673ffffffffffffffffffffffffffffffffffffffff16815260200190815260200160002054915050919050565b826000600260008373ffffffffffffffffffffffffffffffffffffffff1673ffffffffffffffffffffffffffffffffffffffff1681526020019081526020016000205411610db4576040517f08c379a0000000000000000000000000000000000000000000000000000000008152600401610dab90611acb565b60405180910390fd5b3073ffffffffffffffffffffffffffffffffffffffff16630d9df72185856040518363ffffffff1660e01b8152600401610def929190611e5e565b602060405180830381865afa158015610e0c573d6000803e3d6000fd5b505050506040513d601f19601f82011682018060405250810190610e309190611b17565b15610e70576040517f08c379a0000000000000000000000000000000000000000000000000000000008152600401610e6790611ef9565b60405180910390fd5b81600560008673ffffffffffffffffffffffffffffffffffffffff1673ffffffffffffffffffffffffffffffffffffffff16815260200190815260200160002060008581526020019081526020016000206000828254610ed09190611f48565b9250508190555050505050565b610ee56115d1565b610eef6000611672565b565b610ef96115d1565b806000600260008373ffffffffffffffffffffffffffffffffffffffff1673ffffffffffffffffffffffffffffffffffffffff1681526020019081526020016000205411610f7c576040517f08c379a0000000000000000000000000000000000000000000000000000000008152600401610f7390611acb565b60405180910390fd5b610f858261164f565b610fc4576040517f08c379a0000000000000000000000000000000000000000000000000000000008152600401610fbb906119a7565b60405180910390fd5b600260008373ffffffffffffffffffffffffffffffffffffffff1673ffffffffffffffffffffffffffffffffffffffff168152602001908152602001600020600090555050565b60008060009054906101000a900473ffffffffffffffffffffffffffffffffffffffff16905090565b600061103f8261164f565b61107e576040517f08c379a0000000000000000000000000000000000000000000000000000000008152600401611075906119a7565b60405180910390fd5b6000600260008473ffffffffffffffffffffffffffffffffffffffff1673ffffffffffffffffffffffffffffffffffffffff16815260200190815260200160002054119050919050565b600080600160008473ffffffffffffffffffffffffffffffffffffffff1673ffffffffffffffffffffffffffffffffffffffff168152602001908152602001600020549050600081119150915091565b6000826000600260008373ffffffffffffffffffffffffffffffffffffffff1673ffffffffffffffffffffffffffffffffffffffff168152602001908152602001600020541161119d576040517f08c379a000000000000000000000000000000000000000000000000000000000815260040161119490611acb565b60405180910390fd5b6111a68461164f565b6111e5576040517f08c379a00000000000000000000000000000000000000000000000000000000081526004016111dc906119a7565b60405180910390fd5b3073ffffffffffffffffffffffffffffffffffffffff1663d936547e856040518263ffffffff1660e01b815260040161121e9190611906565b602060405180830381865afa15801561123b573d6000803e3d6000fd5b505050506040513d601f19601f8201168201806040525081019061125f9190611b17565b61129e576040517f08c379a000000000000000000000000000000000000000000000000000000000815260040161129590611b90565b60405180910390fd5b6000600260008673ffffffffffffffffffffffffffffffffffffffff1673ffffffffffffffffffffffffffffffffffffffff168152602001908152602001600020549050600181036112f45760009250506113ea565b6000600460008773ffffffffffffffffffffffffffffffffffffffff1673ffffffffffffffffffffffffffffffffffffffff16815260200190815260200160002060008681526020019081526020016000205411156113a657600460008673ffffffffffffffffffffffffffffffffffffffff1673ffffffffffffffffffffffffffffffffffffffff1681526020019081526020016000206000858152602001908152602001600020549250506113ea565b600360008673ffffffffffffffffffffffffffffffffffffffff1673ffffffffffffffffffffffffffffffffffffffff168152602001908152602001600020549250505b5092915050565b6113f96115d1565b6000811161143c576040517f08c379a000000000000000000000000000000000000000000000000000000000815260040161143390611fee565b60405180910390fd5b6114458261164f565b611484576040517f08c379a000000000000000000000000000000000000000000000000000000000815260040161147b906119a7565b60405180910390fd5b6000600160008473ffffffffffffffffffffffffffffffffffffffff1673ffffffffffffffffffffffffffffffffffffffff1681526020019081526020016000205414611506576040517f08c379a00000000000000000000000000000000000000000000000000000000081526004016114fd9061205a565b60405180910390fd5b80600160008473ffffffffffffffffffffffffffffffffffffffff1673ffffffffffffffffffffffffffffffffffffffff168152602001908152602001600020819055505050565b6115566115d1565b600073ffffffffffffffffffffffffffffffffffffffff168173ffffffffffffffffffffffffffffffffffffffff16036115c5576040517f08c379a00000000000000000000000000000000000000000000000000000000081526004016115bc906120ec565b60405180910390fd5b6115ce81611672565b50565b6115d9611736565b73ffffffffffffffffffffffffffffffffffffffff166115f761100b565b73ffffffffffffffffffffffffffffffffffffffff161461164d576040517f08c379a000000000000000000000000000000000000000000000000000000000815260040161164490612158565b60405180910390fd5b565b6000808273ffffffffffffffffffffffffffffffffffffffff163b119050919050565b60008060009054906101000a900473ffffffffffffffffffffffffffffffffffffffff169050816000806101000a81548173ffffffffffffffffffffffffffffffffffffffff021916908373ffffffffffffffffffffffffffffffffffffffff1602179055508173ffffffffffffffffffffffffffffffffffffffff168173ffffffffffffffffffffffffffffffffffffffff167f8be0079c531659141344cd1fd0a4f28419497f9722a3daafe3b4186f6b6457e060405160405180910390a35050565b600033905090565b600080fd5b600073ffffffffffffffffffffffffffffffffffffffff82169050919050565b600061176e82611743565b9050919050565b61177e81611763565b811461178957600080fd5b50565b60008135905061179b81611775565b92915050565b6000602082840312156117b7576117b661173e565b5b60006117c58482850161178c565b91505092915050565b6000819050919050565b6117e1816117ce565b81146117ec57600080fd5b50565b6000813590506117fe816117d8565b92915050565b60008060006060848603121561181d5761181c61173e565b5b600061182b8682870161178c565b935050602061183c868287016117ef565b925050604061184d868287016117ef565b9150509250925092565b6000806040838503121561186e5761186d61173e565b5b600061187c8582860161178c565b925050602061188d858286016117ef565b9150509250929050565b60008115159050919050565b6118ac81611897565b82525050565b60006020820190506118c760008301846118a3565b92915050565b6118d6816117ce565b82525050565b60006020820190506118f160008301846118cd565b92915050565b61190081611763565b82525050565b600060208201905061191b60008301846118f7565b92915050565b600060408201905061193660008301856118a3565b61194360208301846118cd565b9392505050565b600082825260208201905092915050565b7f6e6f74206120736d61727420636f6e7472616374206164647265737300000000600082015250565b6000611991601c8361194a565b915061199c8261195b565b602082019050919050565b600060208201905081810360008301526119c081611984565b9050919050565b7f61757468656e746963617465206164647265737320646f6573206e6f7420657860008201527f6973747321000000000000000000000000000000000000000000000000000000602082015250565b6000611a2360258361194a565b9150611a2e826119c7565b604082019050919050565b60006020820190508181036000830152611a5281611a16565b9050919050565b7f77686974656c697374206164647265737320646f6573206e6f7420657869737460008201527f7300000000000000000000000000000000000000000000000000000000000000602082015250565b6000611ab560218361194a565b9150611ac082611a59565b604082019050919050565b60006020820190508181036000830152611ae481611aa8565b9050919050565b611af481611897565b8114611aff57600080fd5b50565b600081519050611b1181611aeb565b92915050565b600060208284031215611b2d57611b2c61173e565b5b6000611b3b84828501611b02565b91505092915050565b7f6e6f7420612077686974656c697374656420736d61727420636f6e7472616374600082015250565b6000611b7a60208361194a565b9150611b8582611b44565b602082019050919050565b60006020820190508181036000830152611ba981611b6d565b9050919050565b7f6e6f74206120637573746f6d20707269636520746f6b656e0000000000000000600082015250565b6000611be660188361194a565b9150611bf182611bb0565b602082019050919050565b60006020820190508181036000830152611c1581611bd9565b9050919050565b7f6e6f7420612076616c696420746f6b656e496400000000000000000000000000600082015250565b6000611c5260138361194a565b9150611c5d82611c1c565b602082019050919050565b60006020820190508181036000830152611c8181611c45565b9050919050565b7f696e76616c6964206578706972652074696d6520636865636b00000000000000600082015250565b6000611cbe60198361194a565b9150611cc982611c88565b602082019050919050565b60006020820190508181036000830152611ced81611cb1565b9050919050565b7f616c7265616479207265676973746572206578706972652074696d6500000000600082015250565b6000611d2a601c8361194a565b9150611d3582611cf4565b602082019050919050565b60006020820190508181036000830152611d5981611d1d565b9050919050565b7f77686974656c6973742061646472657373206578697374730000000000000000600082015250565b6000611d9660188361194a565b9150611da182611d60565b602082019050919050565b60006020820190508181036000830152611dc581611d89565b9050919050565b7f707269636520666f7220547970652031204e46542073686f756c64206265203060008201527f2866726565290000000000000000000000000000000000000000000000000000602082015250565b6000611e2860268361194a565b9150611e3382611dcc565b604082019050919050565b60006020820190508181036000830152611e5781611e1b565b9050919050565b6000604082019050611e7360008301856118f7565b611e8060208301846118cd565b9392505050565b7f696e76616c696420746f6b656e49642c206d6179206e6f74206578697374206f60008201527f7220657870697265640000000000000000000000000000000000000000000000602082015250565b6000611ee360298361194a565b9150611eee82611e87565b604082019050919050565b60006020820190508181036000830152611f1281611ed6565b9050919050565b7f4e487b7100000000000000000000000000000000000000000000000000000000600052601160045260246000fd5b6000611f53826117ce565b9150611f5e836117ce565b9250828201905080821115611f7657611f75611f19565b5b92915050565b7f6d617820616374697665206e756d2073686f756c64206265206772656174657260008201527f207468616e203000000000000000000000000000000000000000000000000000602082015250565b6000611fd860278361194a565b9150611fe382611f7c565b604082019050919050565b6000602082019050818103600083015261200781611fcb565b9050919050565b7f61757468656e7469636174652061646472657373206578697374732100000000600082015250565b6000612044601c8361194a565b915061204f8261200e565b602082019050919050565b6000602082019050818103600083015261207381612037565b9050919050565b7f4f776e61626c653a206e6577206f776e657220697320746865207a65726f206160008201527f6464726573730000000000000000000000000000000000000000000000000000602082015250565b60006120d660268361194a565b91506120e18261207a565b604082019050919050565b60006020820190508181036000830152612105816120c9565b9050919050565b7f4f776e61626c653a2063616c6c6572206973206e6f7420746865206f776e6572600082015250565b600061214260208361194a565b915061214d8261210c565b602082019050919050565b6000602082019050818103600083015261217181612135565b905091905056fea2646970667358221220a871eb655c595cc85175c1d2e1fa8a3e4e3751bc740dd5993fa696d8d55655bc64736f6c63430008120033",
  "linkReferences": {},
  "deployedLinkReferences": {}
}