{
  "_format": "hh-sol-artifact-1",
  "contractName": "CollectionMetaFacet",
  "sourceName": "contracts/impl/facets/CollectionMetaFacet.sol",
  "abi": [
    {
      "inputs": [],
      "name": "collectionMetadata",
      "outputs": [
        {
          "internalType": "string",
          "name": "",
          "type": "string"
        }
      ],
      "stateMutability": "view",
      "type": "function"
    },
    {
      "inputs": [
        {
          "internalType": "uint256",
          "name": "tokenId",
          "type": "uint256"
        }
      ],
      "name": "tokenURI",
      "outputs": [
        {
          "internalType": "string",
          "name": "",
          "type": "string"
        }
      ],
      "stateMutability": "view",
      "type": "function"
    }
  ],
  "bytecode": "0x608060405234801561001057600080fd5b5061069f806100206000396000f3fe608060405234801561001057600080fd5b50600436106100365760003560e01c806389ed2edf1461003b578063c87b56dd14610059575b600080fd5b610043610089565b6040516100509190610429565b60405180910390f35b610073600480360381019061006e9190610486565b61011e565b6040516100809190610429565b60405180910390f35b60606000600201805461009b906104e2565b80601f01602080910402602001604051908101604052809291908181526020018280546100c7906104e2565b80156101145780601f106100e957610100808354040283529160200191610114565b820191906000526020600020905b8154815290600101906020018083116100f757829003601f168201915b5050505050905090565b606061012982610130565b9050919050565b6060600061013c610173565b90508060030161014b84610178565b60405160200161015c9291906105e7565b604051602081830303815290604052915050919050565b600090565b60606000600161018784610246565b01905060008167ffffffffffffffff8111156101a6576101a561060b565b5b6040519080825280601f01601f1916602001820160405280156101d85781602001600182028036833780820191505090505b509050600082602001820190505b60011561023b578080600190039150507f3031323334353637383961626364656600000000000000000000000000000000600a86061a8153600a858161022f5761022e61063a565b5b049450600085036101e6575b819350505050919050565b600080600090507a184f03e93ff9f4daa797ed6e38ed64bf6a1f01000000000000000083106102a4577a184f03e93ff9f4daa797ed6e38ed64bf6a1f010000000000000000838161029a5761029961063a565b5b0492506040810190505b6d04ee2d6d415b85acef810000000083106102e1576d04ee2d6d415b85acef810000000083816102d7576102d661063a565b5b0492506020810190505b662386f26fc10000831061031057662386f26fc1000083816103065761030561063a565b5b0492506010810190505b6305f5e1008310610339576305f5e100838161032f5761032e61063a565b5b0492506008810190505b612710831061035e5761271083816103545761035361063a565b5b0492506004810190505b6064831061038157606483816103775761037661063a565b5b0492506002810190505b600a8310610390576001810190505b80915050919050565b600081519050919050565b600082825260208201905092915050565b60005b838110156103d35780820151818401526020810190506103b8565b60008484015250505050565b6000601f19601f8301169050919050565b60006103fb82610399565b61040581856103a4565b93506104158185602086016103b5565b61041e816103df565b840191505092915050565b6000602082019050818103600083015261044381846103f0565b905092915050565b600080fd5b6000819050919050565b61046381610450565b811461046e57600080fd5b50565b6000813590506104808161045a565b92915050565b60006020828403121561049c5761049b61044b565b5b60006104aa84828501610471565b91505092915050565b7f4e487b7100000000000000000000000000000000000000000000000000000000600052602260045260246000fd5b600060028204905060018216806104fa57607f821691505b60208210810361050d5761050c6104b3565b5b50919050565b600081905092915050565b60008190508160005260206000209050919050565b60008154610540816104e2565b61054a8186610513565b94506001821660008114610565576001811461057a576105ad565b60ff19831686528115158202860193506105ad565b6105838561051e565b60005b838110156105a557815481890152600182019150602081019050610586565b838801955050505b50505092915050565b60006105c182610399565b6105cb8185610513565b93506105db8185602086016103b5565b80840191505092915050565b60006105f38285610533565b91506105ff82846105b6565b91508190509392505050565b7f4e487b7100000000000000000000000000000000000000000000000000000000600052604160045260246000fd5b7f4e487b7100000000000000000000000000000000000000000000000000000000600052601260045260246000fdfea264697066735822122035dc0756143bdbfec540a8257eb01ffe4cf7a499db6c650aa1e16f48c66bf0bc64736f6c63430008120033",
  "linkReferences": {},
  "deployedLinkReferences": {}
}