{
  "_format": "hh-sol-artifact-1",
  "contractName": "RMRKMintAndBurnFacet",
  "sourceName": "contracts/impl/facets/RMRKMintAndBurnFacet.sol",
  "abi": [
    {
      "inputs": [],
      "name": "ERC721MintToTheZeroAddress",
      "type": "error"
    },
    {
      "inputs": [],
      "name": "ERC721TokenAlreadyMinted",
      "type": "error"
    },
    {
      "inputs": [],
      "name": "ERC721TransferToNonReceiverImplementer",
      "type": "error"
    },
    {
      "inputs": [
        {
          "internalType": "address",
          "name": "_user",
          "type": "address"
        },
        {
          "internalType": "address",
          "name": "_contractOwner",
          "type": "address"
        }
      ],
      "name": "NotContractOwner",
      "type": "error"
    },
    {
      "inputs": [],
      "name": "RMRKIdZeroForbidden",
      "type": "error"
    },
    {
      "inputs": [],
      "name": "RMRKMintOverMax",
      "type": "error"
    },
    {
      "inputs": [],
      "name": "RMRKMintUnderpriced",
      "type": "error"
    },
    {
      "inputs": [
        {
          "internalType": "uint256",
          "name": "tokenId",
          "type": "uint256"
        }
      ],
      "name": "burn",
      "outputs": [],
      "stateMutability": "nonpayable",
      "type": "function"
    },
    {
      "inputs": [
        {
          "internalType": "uint256",
          "name": "id",
          "type": "uint256"
        }
      ],
      "name": "initializeWhitelistId",
      "outputs": [],
      "stateMutability": "nonpayable",
      "type": "function"
    },
    {
      "inputs": [
        {
          "internalType": "address",
          "name": "to",
          "type": "address"
        }
      ],
      "name": "mint",
      "outputs": [],
      "stateMutability": "payable",
      "type": "function"
    }
  ],
  "bytecode": "0x608060405234801561001057600080fd5b5061196c806100206000396000f3fe6080604052600436106100345760003560e01c806342966c68146100395780636a62784214610062578063d7628b081461007e575b600080fd5b34801561004557600080fd5b50610060600480360381019061005b91906112fa565b6100a7565b005b61007c60048036038101906100779190611385565b610272565b005b34801561008a57600080fd5b506100a560048036038101906100a091906112fa565b61029d565b005b80600080600d01600083815260200190815260200160002060009054906101000a900473ffffffffffffffffffffffffffffffffffffffff16905060006100ec610329565b90508073ffffffffffffffffffffffffffffffffffffffff168273ffffffffffffffffffffffffffffffffffffffff1614806101b157506000600c0160008373ffffffffffffffffffffffffffffffffffffffff1673ffffffffffffffffffffffffffffffffffffffff16815260200190815260200160002060008273ffffffffffffffffffffffffffffffffffffffff1673ffffffffffffffffffffffffffffffffffffffff16815260200190815260200160002060009054906101000a900460ff165b8061025a57508073ffffffffffffffffffffffffffffffffffffffff166000600b01600085815260200190815260200160002060008473ffffffffffffffffffffffffffffffffffffffff1673ffffffffffffffffffffffffffffffffffffffff16815260200190815260200160002060009054906101000a900473ffffffffffffffffffffffffffffffffffffffff1673ffffffffffffffffffffffffffffffffffffffff16145b61026357600080fd5b61026c84610331565b50505050565b600061027d82610508565b90506102998282604051806020016040528060008152506106c6565b5050565b6102a5610719565b60008060170160009054906101000a900463ffffffff1663ffffffff1614610302576040517f08c379a00000000000000000000000000000000000000000000000000000000081526004016102f990611435565b60405180910390fd5b80600060170160006101000a81548163ffffffff021916908363ffffffff16021790555050565b600033905090565b600061033c826107e3565b9050600061034861082e565b9050600181600a0160008473ffffffffffffffffffffffffffffffffffffffff1673ffffffffffffffffffffffffffffffffffffffff168152602001908152602001600020600082825461039c9190611484565b925050819055506103ae600084610833565b80600e01600084815260200190815260200160002060006103cf9190611255565b80601001600084815260200190815260200160002060006103f09190611255565b80600b01600084815260200190815260200160002060008373ffffffffffffffffffffffffffffffffffffffff1673ffffffffffffffffffffffffffffffffffffffff16815260200190815260200160002060006101000a81549073ffffffffffffffffffffffffffffffffffffffff021916905580600d01600084815260200190815260200160002060006101000a81549073ffffffffffffffffffffffffffffffffffffffff02191690556104a7828461093e565b82600073ffffffffffffffffffffffffffffffffffffffff168373ffffffffffffffffffffffffffffffffffffffff167fddf252ad1be2c89b69c2b068fc378daa952ba7f163c4a11628f55a4df523b3ef60405160405180910390a4505050565b60008061051361082e565b905060008160170160009054906101000a900463ffffffff1663ffffffff1611610572576040517f08c379a000000000000000000000000000000000000000000000000000000000815260040161056990611504565b60405180910390fd5b6000816015016000600163ffffffff16815260200190815260200160002060008573ffffffffffffffffffffffffffffffffffffffff1673ffffffffffffffffffffffffffffffffffffffff168152602001908152602001600020541161060e576040517f08c379a000000000000000000000000000000000000000000000000000000000815260040161060590611596565b60405180910390fd5b806005015481600601540361064f576040517fbd239bf600000000000000000000000000000000000000000000000000000000815260040160405180910390fd5b806004015461065c610c3d565b1015610694576040517ff2ffecad00000000000000000000000000000000000000000000000000000000815260040160405180910390fd5b6000600182600601546106a791906115b6565b9050600182600601600082825401925050819055508092505050919050565b6106d1838383610c45565b6106de6000848484610eb4565b610714576040517fbcb5663700000000000000000000000000000000000000000000000000000000815260040160405180910390fd5b505050565b610721611032565b60030160009054906101000a900473ffffffffffffffffffffffffffffffffffffffff1673ffffffffffffffffffffffffffffffffffffffff163373ffffffffffffffffffffffffffffffffffffffff16146107e15733610780611032565b60030160009054906101000a900473ffffffffffffffffffffffffffffffffffffffff166040517fff4127cb0000000000000000000000000000000000000000000000000000000081526004016107d89291906115f9565b60405180910390fd5b565b6000806107ee61082e565b905080600d01600084815260200190815260200160002060009054906101000a900473ffffffffffffffffffffffffffffffffffffffff16915050919050565b600090565b600061083e826107e3565b9050600061084a61082e565b90508381600b01600085815260200190815260200160002060008473ffffffffffffffffffffffffffffffffffffffff1673ffffffffffffffffffffffffffffffffffffffff16815260200190815260200160002060006101000a81548173ffffffffffffffffffffffffffffffffffffffff021916908373ffffffffffffffffffffffffffffffffffffffff160217905550828473ffffffffffffffffffffffffffffffffffffffff168373ffffffffffffffffffffffffffffffffffffffff167f8c5be1e5ebec7d5bd14f71427d1e84f3dd0314c0f7b2291e5b200ac8c7c3b92560405160405180910390a450505050565b600073ffffffffffffffffffffffffffffffffffffffff168273ffffffffffffffffffffffffffffffffffffffff16036109ad576040517f08c379a00000000000000000000000000000000000000000000000000000000081526004016109a49061166e565b60405180910390fd5b8173ffffffffffffffffffffffffffffffffffffffff166109cd826107e3565b73ffffffffffffffffffffffffffffffffffffffff1614610a23576040517f08c379a0000000000000000000000000000000000000000000000000000000008152600401610a1a906116da565b60405180910390fd5b6000610a2d61082e565b9050600081601301600084815260200190815260200160002054905060018260120160008673ffffffffffffffffffffffffffffffffffffffff1673ffffffffffffffffffffffffffffffffffffffff16815260200190815260200160002080549050610a9a9190611484565b8114610c375760008260120160008673ffffffffffffffffffffffffffffffffffffffff1673ffffffffffffffffffffffffffffffffffffffff16815260200190815260200160002060018460120160008873ffffffffffffffffffffffffffffffffffffffff1673ffffffffffffffffffffffffffffffffffffffff16815260200190815260200160002080549050610b349190611484565b81548110610b4557610b446116fa565b5b90600052602060002001549050808360120160008773ffffffffffffffffffffffffffffffffffffffff1673ffffffffffffffffffffffffffffffffffffffff1681526020019081526020016000208381548110610ba657610ba56116fa565b5b906000526020600020018190555081836013016000838152602001908152602001600020819055508260120160008673ffffffffffffffffffffffffffffffffffffffff1673ffffffffffffffffffffffffffffffffffffffff168152602001908152602001600020805480610c1f57610c1e611729565b5b60019003818190600052602060002001600090559055505b50505050565b600034905090565b600073ffffffffffffffffffffffffffffffffffffffff168373ffffffffffffffffffffffffffffffffffffffff1603610cab576040517f25bd6bd300000000000000000000000000000000000000000000000000000000815260040160405180910390fd5b610cb48261105f565b15610ceb576040517fc5a8d37100000000000000000000000000000000000000000000000000000000815260040160405180910390fd5b60008203610d25576040517f12c33ce300000000000000000000000000000000000000000000000000000000815260040160405180910390fd5b6000610d2f61082e565b9050600181600a0160008673ffffffffffffffffffffffffffffffffffffffff1673ffffffffffffffffffffffffffffffffffffffff1681526020019081526020016000206000828254610d8391906115b6565b925050819055508381600d01600085815260200190815260200160002060006101000a81548173ffffffffffffffffffffffffffffffffffffffff021916908373ffffffffffffffffffffffffffffffffffffffff160217905550610de884846110da565b828473ffffffffffffffffffffffffffffffffffffffff16600073ffffffffffffffffffffffffffffffffffffffff167fddf252ad1be2c89b69c2b068fc378daa952ba7f163c4a11628f55a4df523b3ef60405160405180910390a4828473ffffffffffffffffffffffffffffffffffffffff16600073ffffffffffffffffffffffffffffffffffffffff167f04444026cefd1b05506559cab59d1b865ae3ba4ed2fe5c894f04e522776c552d600080604051610ea692919061179d565b60405180910390a450505050565b6000610ed58473ffffffffffffffffffffffffffffffffffffffff16611232565b15611025578373ffffffffffffffffffffffffffffffffffffffff1663150b7a02610efe610329565b8786866040518563ffffffff1660e01b8152600401610f209493929190611865565b6020604051808303816000875af1925050508015610f5c57506040513d601f19601f82011682018060405250810190610f599190611909565b60015b610fd5573d8060008114610f8c576040519150601f19603f3d011682016040523d82523d6000602084013e610f91565b606091505b506000815103610fcd576040517fbcb5663700000000000000000000000000000000000000000000000000000000815260040160405180910390fd5b805181602001fd5b63150b7a0260e01b7bffffffffffffffffffffffffffffffffffffffffffffffffffffffff1916817bffffffffffffffffffffffffffffffffffffffffffffffffffffffff19161491505061102a565b600190505b949350505050565b6000807fc8fcad8db84d3cc18b4c41d551ea0ee66dd599cde068d998e57d5e09332c131c90508091505090565b60008061106a61082e565b9050600073ffffffffffffffffffffffffffffffffffffffff1681600d01600085815260200190815260200160002060009054906101000a900473ffffffffffffffffffffffffffffffffffffffff1673ffffffffffffffffffffffffffffffffffffffff161415915050919050565b600073ffffffffffffffffffffffffffffffffffffffff168273ffffffffffffffffffffffffffffffffffffffff1603611149576040517f08c379a00000000000000000000000000000000000000000000000000000000081526004016111409061166e565b60405180910390fd5b600061115361082e565b90508060120160008473ffffffffffffffffffffffffffffffffffffffff1673ffffffffffffffffffffffffffffffffffffffff168152602001908152602001600020829080600181540180825580915050600190039060005260206000200160009091909190915055600060018260120160008673ffffffffffffffffffffffffffffffffffffffff1673ffffffffffffffffffffffffffffffffffffffff168152602001908152602001600020805490506112109190611484565b9050808260130160008581526020019081526020016000208190555050505050565b6000808273ffffffffffffffffffffffffffffffffffffffff163b119050919050565b50805460008255600202906000526020600020908101906112769190611279565b50565b5b808211156112bb576000808201600090556001820160006101000a81549073ffffffffffffffffffffffffffffffffffffffff02191690555060020161127a565b5090565b600080fd5b6000819050919050565b6112d7816112c4565b81146112e257600080fd5b50565b6000813590506112f4816112ce565b92915050565b6000602082840312156113105761130f6112bf565b5b600061131e848285016112e5565b91505092915050565b600073ffffffffffffffffffffffffffffffffffffffff82169050919050565b600061135282611327565b9050919050565b61136281611347565b811461136d57600080fd5b50565b60008135905061137f81611359565b92915050565b60006020828403121561139b5761139a6112bf565b5b60006113a984828501611370565b91505092915050565b600082825260208201905092915050565b7f77686974656c69737420696420686173206265656e20696e697469616c697a6560008201527f6421000000000000000000000000000000000000000000000000000000000000602082015250565b600061141f6022836113b2565b915061142a826113c3565b604082019050919050565b6000602082019050818103600083015261144e81611412565b9050919050565b7f4e487b7100000000000000000000000000000000000000000000000000000000600052601160045260246000fd5b600061148f826112c4565b915061149a836112c4565b92508282039050818111156114b2576114b1611455565b5b92915050565b7f77686974656c697374206973206e6f7420696e697469616c697a656400000000600082015250565b60006114ee601c836113b2565b91506114f9826114b8565b602082019050919050565b6000602082019050818103600083015261151d816114e1565b9050919050565b7f63757272656e742061646472657373206973206e6f7420696e2077686974656c60008201527f6973740000000000000000000000000000000000000000000000000000000000602082015250565b60006115806023836113b2565b915061158b82611524565b604082019050919050565b600060208201905081810360008301526115af81611573565b9050919050565b60006115c1826112c4565b91506115cc836112c4565b92508282019050808211156115e4576115e3611455565b5b92915050565b6115f381611347565b82525050565b600060408201905061160e60008301856115ea565b61161b60208301846115ea565b9392505050565b7f4f776e6572206d7573742062652076616c696400000000000000000000000000600082015250565b60006116586013836113b2565b915061166382611622565b602082019050919050565b600060208201905081810360008301526116878161164b565b9050919050565b7f6e6f7420746865207265616c206f776e65720000000000000000000000000000600082015250565b60006116c46012836113b2565b91506116cf8261168e565b602082019050919050565b600060208201905081810360008301526116f3816116b7565b9050919050565b7f4e487b7100000000000000000000000000000000000000000000000000000000600052603260045260246000fd5b7f4e487b7100000000000000000000000000000000000000000000000000000000600052603160045260246000fd5b6000819050919050565b6000819050919050565b600061178761178261177d84611758565b611762565b6112c4565b9050919050565b6117978161176c565b82525050565b60006040820190506117b2600083018561178e565b6117bf602083018461178e565b9392505050565b6117cf816112c4565b82525050565b600081519050919050565b600082825260208201905092915050565b60005b8381101561180f5780820151818401526020810190506117f4565b60008484015250505050565b6000601f19601f8301169050919050565b6000611837826117d5565b61184181856117e0565b93506118518185602086016117f1565b61185a8161181b565b840191505092915050565b600060808201905061187a60008301876115ea565b61188760208301866115ea565b61189460408301856117c6565b81810360608301526118a6818461182c565b905095945050505050565b60007fffffffff0000000000000000000000000000000000000000000000000000000082169050919050565b6118e6816118b1565b81146118f157600080fd5b50565b600081519050611903816118dd565b92915050565b60006020828403121561191f5761191e6112bf565b5b600061192d848285016118f4565b9150509291505056fea264697066735822122040df3ab29aef251244656dd350ad10e328bb38634e2db2d1ec600019be4b847064736f6c63430008120033",
  "linkReferences": {},
  "deployedLinkReferences": {}
}