{
  "_format": "hh-sol-artifact-1",
  "contractName": "RMRKNestableFacet",
  "sourceName": "contracts/impl/facets/RMRKNestableFacet.sol",
  "abi": [
    {
      "inputs": [],
      "name": "ERC721AddressZeroIsNotaValidOwner",
      "type": "error"
    },
    {
      "inputs": [],
      "name": "RMRKChildAlreadyExists",
      "type": "error"
    },
    {
      "inputs": [],
      "name": "RMRKChildIndexOutOfRange",
      "type": "error"
    },
    {
      "inputs": [],
      "name": "RMRKIsNotContract",
      "type": "error"
    },
    {
      "inputs": [],
      "name": "RMRKMaxPendingChildrenReached",
      "type": "error"
    },
    {
      "inputs": [],
      "name": "RMRKPendingChildIndexOutOfRange",
      "type": "error"
    },
    {
      "inputs": [],
      "name": "RMRKUnexpectedChildId",
      "type": "error"
    },
    {
      "inputs": [],
      "name": "RMRKUnexpectedNumberOfChildren",
      "type": "error"
    },
    {
      "inputs": [
        {
          "internalType": "uint256",
          "name": "parentId",
          "type": "uint256"
        },
        {
          "internalType": "uint256",
          "name": "childIndex",
          "type": "uint256"
        },
        {
          "internalType": "address",
          "name": "childAddress",
          "type": "address"
        },
        {
          "internalType": "uint256",
          "name": "childId",
          "type": "uint256"
        }
      ],
      "name": "acceptChild",
      "outputs": [],
      "stateMutability": "payable",
      "type": "function"
    },
    {
      "inputs": [
        {
          "internalType": "uint256",
          "name": "parentId",
          "type": "uint256"
        },
        {
          "internalType": "uint256",
          "name": "childId",
          "type": "uint256"
        },
        {
          "internalType": "bytes",
          "name": "data",
          "type": "bytes"
        }
      ],
      "name": "addChild",
      "outputs": [],
      "stateMutability": "nonpayable",
      "type": "function"
    },
    {
      "inputs": [
        {
          "internalType": "address",
          "name": "owner",
          "type": "address"
        }
      ],
      "name": "balanceOf",
      "outputs": [
        {
          "internalType": "uint256",
          "name": "",
          "type": "uint256"
        }
      ],
      "stateMutability": "view",
      "type": "function"
    },
    {
      "inputs": [
        {
          "internalType": "address",
          "name": "childAddress",
          "type": "address"
        },
        {
          "internalType": "uint256",
          "name": "childId",
          "type": "uint256"
        }
      ],
      "name": "childIsInActive",
      "outputs": [
        {
          "internalType": "bool",
          "name": "",
          "type": "bool"
        }
      ],
      "stateMutability": "view",
      "type": "function"
    },
    {
      "inputs": [
        {
          "internalType": "uint256",
          "name": "parentId",
          "type": "uint256"
        },
        {
          "internalType": "uint256",
          "name": "index",
          "type": "uint256"
        }
      ],
      "name": "childOf",
      "outputs": [
        {
          "components": [
            {
              "internalType": "uint256",
              "name": "tokenId",
              "type": "uint256"
            },
            {
              "internalType": "address",
              "name": "contractAddress",
              "type": "address"
            }
          ],
          "internalType": "struct Child",
          "name": "",
          "type": "tuple"
        }
      ],
      "stateMutability": "view",
      "type": "function"
    },
    {
      "inputs": [
        {
          "internalType": "uint256",
          "name": "parentId",
          "type": "uint256"
        }
      ],
      "name": "childrenOf",
      "outputs": [
        {
          "components": [
            {
              "internalType": "uint256",
              "name": "tokenId",
              "type": "uint256"
            },
            {
              "internalType": "address",
              "name": "contractAddress",
              "type": "address"
            }
          ],
          "internalType": "struct Child[]",
          "name": "",
          "type": "tuple[]"
        }
      ],
      "stateMutability": "view",
      "type": "function"
    },
    {
      "inputs": [
        {
          "internalType": "address",
          "name": "owner",
          "type": "address"
        },
        {
          "internalType": "uint256",
          "name": "index",
          "type": "uint256"
        }
      ],
      "name": "getOwnerCollectionByIndex",
      "outputs": [
        {
          "internalType": "uint256",
          "name": "tokenId",
          "type": "uint256"
        },
        {
          "internalType": "string",
          "name": "tokenUri",
          "type": "string"
        }
      ],
      "stateMutability": "view",
      "type": "function"
    },
    {
      "inputs": [
        {
          "internalType": "uint256",
          "name": "tokenId",
          "type": "uint256"
        }
      ],
      "name": "ownerOf",
      "outputs": [
        {
          "internalType": "address",
          "name": "",
          "type": "address"
        }
      ],
      "stateMutability": "view",
      "type": "function"
    },
    {
      "inputs": [
        {
          "internalType": "uint256",
          "name": "parentId",
          "type": "uint256"
        },
        {
          "internalType": "uint256",
          "name": "index",
          "type": "uint256"
        }
      ],
      "name": "pendingChildOf",
      "outputs": [
        {
          "components": [
            {
              "internalType": "uint256",
              "name": "tokenId",
              "type": "uint256"
            },
            {
              "internalType": "address",
              "name": "contractAddress",
              "type": "address"
            }
          ],
          "internalType": "struct Child",
          "name": "",
          "type": "tuple"
        }
      ],
      "stateMutability": "view",
      "type": "function"
    },
    {
      "inputs": [
        {
          "internalType": "uint256",
          "name": "parentId",
          "type": "uint256"
        }
      ],
      "name": "pendingChildrenOf",
      "outputs": [
        {
          "components": [
            {
              "internalType": "uint256",
              "name": "tokenId",
              "type": "uint256"
            },
            {
              "internalType": "address",
              "name": "contractAddress",
              "type": "address"
            }
          ],
          "internalType": "struct Child[]",
          "name": "",
          "type": "tuple[]"
        }
      ],
      "stateMutability": "view",
      "type": "function"
    },
    {
      "inputs": [
        {
          "internalType": "uint256",
          "name": "tokenId",
          "type": "uint256"
        },
        {
          "internalType": "uint256",
          "name": "maxRejections",
          "type": "uint256"
        }
      ],
      "name": "rejectAllChildren",
      "outputs": [],
      "stateMutability": "nonpayable",
      "type": "function"
    },
    {
      "inputs": [
        {
          "internalType": "uint256",
          "name": "tokenId",
          "type": "uint256"
        },
        {
          "internalType": "address",
          "name": "to",
          "type": "address"
        },
        {
          "internalType": "uint256",
          "name": "destinationId",
          "type": "uint256"
        },
        {
          "internalType": "uint256",
          "name": "childIndex",
          "type": "uint256"
        },
        {
          "internalType": "address",
          "name": "childAddress",
          "type": "address"
        },
        {
          "internalType": "uint256",
          "name": "childId",
          "type": "uint256"
        },
        {
          "internalType": "bool",
          "name": "isPending",
          "type": "bool"
        },
        {
          "internalType": "bytes",
          "name": "data",
          "type": "bytes"
        }
      ],
      "name": "transferChild",
      "outputs": [],
      "stateMutability": "nonpayable",
      "type": "function"
    }
  ],
  "bytecode": "0x608060405234801561001057600080fd5b50613148806100206000396000f3fe6080604052600436106100a75760003560e01c80636f19951c116100645780636f19951c1461020757806370a08231146102445780639796133614610281578063a898e364146102aa578063defa80c3146102e7578063e97ceaa814610310576100a7565b80632f32f937146100ac5780634182e4a3146100e957806344ec934414610126578063504ac573146101635780636352211e146101a1578063635490cc146101de575b600080fd5b3480156100b857600080fd5b506100d360048036038101906100ce91906122ed565b61032c565b6040516100e091906123ac565b60405180910390f35b3480156100f557600080fd5b50610110600480360381019061010b91906123f3565b610424565b60405161011d919061244e565b60405180910390f35b34801561013257600080fd5b5061014d60048036038101906101489190612469565b610485565b60405161015a9190612574565b60405180910390f35b34801561016f57600080fd5b5061018a600480360381019061018591906123f3565b610497565b604051610198929190612635565b60405180910390f35b3480156101ad57600080fd5b506101c860048036038101906101c39190612469565b610598565b6040516101d59190612674565b60405180910390f35b3480156101ea57600080fd5b50610205600480360381019061020091906127c4565b6105aa565b005b34801561021357600080fd5b5061022e60048036038101906102299190612469565b61063d565b60405161023b9190612574565b60405180910390f35b34801561025057600080fd5b5061026b60048036038101906102669190612833565b610717565b6040516102789190612860565b60405180910390f35b34801561028d57600080fd5b506102a860048036038101906102a391906122ed565b6107c8565b005b3480156102b657600080fd5b506102d160048036038101906102cc91906122ed565b610995565b6040516102de91906123ac565b60405180910390f35b3480156102f357600080fd5b5061030e600480360381019061030991906128a7565b610a8d565b005b61032a60048036038101906103259190612979565b610c66565b005b610334612209565b8161033e8461063d565b5111610376576040517fca7cc84a00000000000000000000000000000000000000000000000000000000815260040160405180910390fd5b600080600e016000858152602001908152602001600020838154811061039f5761039e6129e0565b5b9060005260206000209060020201604051806040016040529081600082015481526020016001820160009054906101000a900473ffffffffffffffffffffffffffffffffffffffff1673ffffffffffffffffffffffffffffffffffffffff1673ffffffffffffffffffffffffffffffffffffffff168152505090508091505092915050565b600080600060110160008573ffffffffffffffffffffffffffffffffffffffff1673ffffffffffffffffffffffffffffffffffffffff1681526020019081526020016000206000848152602001908152602001600020541415905092915050565b606061049082610e42565b9050919050565b60006060600073ffffffffffffffffffffffffffffffffffffffff168473ffffffffffffffffffffffffffffffffffffffff16036104d457600080fd5b600060120160008573ffffffffffffffffffffffffffffffffffffffff1673ffffffffffffffffffffffffffffffffffffffff16815260200190815260200160002080549050831061052557600080fd5b600060120160008573ffffffffffffffffffffffffffffffffffffffff1673ffffffffffffffffffffffffffffffffffffffff1681526020019081526020016000208381548110610579576105786129e0565b5b9060005260206000200154915061058f82610f29565b90509250929050565b60006105a382610f6c565b9050919050565b6105b383610fb7565b60006105bd611002565b90506105de8173ffffffffffffffffffffffffffffffffffffffff1661100a565b610614576040517fb9d3114700000000000000000000000000000000000000000000000000000000815260040160405180910390fd5b6106208482858561102d565b61062b818585611033565b6106378482858561114c565b50505050565b6060600080600e016000848152602001908152602001600020805480602002602001604051908101604052809291908181526020016000905b828210156107085783829060005260206000209060020201604051806040016040529081600082015481526020016001820160009054906101000a900473ffffffffffffffffffffffffffffffffffffffff1673ffffffffffffffffffffffffffffffffffffffff1673ffffffffffffffffffffffffffffffffffffffff168152505081526020019060010190610676565b50505050905080915050919050565b60008073ffffffffffffffffffffffffffffffffffffffff168273ffffffffffffffffffffffffffffffffffffffff160361077e576040517f7772286600000000000000000000000000000000000000000000000000000000815260040160405180910390fd5b6000600a0160008373ffffffffffffffffffffffffffffffffffffffff1673ffffffffffffffffffffffffffffffffffffffff168152602001908152602001600020549050919050565b81600080600d01600083815260200190815260200160002060009054906101000a900473ffffffffffffffffffffffffffffffffffffffff169050600061080d611002565b90508073ffffffffffffffffffffffffffffffffffffffff168273ffffffffffffffffffffffffffffffffffffffff1614806108d257506000600c0160008373ffffffffffffffffffffffffffffffffffffffff1673ffffffffffffffffffffffffffffffffffffffff16815260200190815260200160002060008273ffffffffffffffffffffffffffffffffffffffff1673ffffffffffffffffffffffffffffffffffffffff16815260200190815260200160002060009054906101000a900460ff165b8061097b57508073ffffffffffffffffffffffffffffffffffffffff166000600b01600085815260200190815260200160002060008473ffffffffffffffffffffffffffffffffffffffff1673ffffffffffffffffffffffffffffffffffffffff16815260200190815260200160002060009054906101000a900473ffffffffffffffffffffffffffffffffffffffff1673ffffffffffffffffffffffffffffffffffffffff16145b61098457600080fd5b61098e8585611152565b5050505050565b61099d612209565b816109a784610e42565b51116109df576040517fda22687f00000000000000000000000000000000000000000000000000000000815260040160405180910390fd5b60008060100160008581526020019081526020016000208381548110610a0857610a076129e0565b5b9060005260206000209060020201604051806040016040529081600082015481526020016001820160009054906101000a900473ffffffffffffffffffffffffffffffffffffffff1673ffffffffffffffffffffffffffffffffffffffff1673ffffffffffffffffffffffffffffffffffffffff168152505090508091505092915050565b87600080600d01600083815260200190815260200160002060009054906101000a900473ffffffffffffffffffffffffffffffffffffffff1690506000610ad2611002565b90508073ffffffffffffffffffffffffffffffffffffffff168273ffffffffffffffffffffffffffffffffffffffff161480610b9757506000600c0160008373ffffffffffffffffffffffffffffffffffffffff1673ffffffffffffffffffffffffffffffffffffffff16815260200190815260200160002060008273ffffffffffffffffffffffffffffffffffffffff1673ffffffffffffffffffffffffffffffffffffffff16815260200190815260200160002060009054906101000a900460ff165b80610c4057508073ffffffffffffffffffffffffffffffffffffffff166000600b01600085815260200190815260200160002060008473ffffffffffffffffffffffffffffffffffffffff1673ffffffffffffffffffffffffffffffffffffffff16815260200190815260200160002060009054906101000a900473ffffffffffffffffffffffffffffffffffffffff1673ffffffffffffffffffffffffffffffffffffffff16145b610c4957600080fd5b610c598b8b8b8b8b8b8b8b6111f8565b5050505050505050505050565b83600080600d01600083815260200190815260200160002060009054906101000a900473ffffffffffffffffffffffffffffffffffffffff1690506000610cab611002565b90508073ffffffffffffffffffffffffffffffffffffffff168273ffffffffffffffffffffffffffffffffffffffff161480610d7057506000600c0160008373ffffffffffffffffffffffffffffffffffffffff1673ffffffffffffffffffffffffffffffffffffffff16815260200190815260200160002060008273ffffffffffffffffffffffffffffffffffffffff1673ffffffffffffffffffffffffffffffffffffffff16815260200190815260200160002060009054906101000a900460ff165b80610e1957508073ffffffffffffffffffffffffffffffffffffffff166000600b01600085815260200190815260200160002060008473ffffffffffffffffffffffffffffffffffffffff1673ffffffffffffffffffffffffffffffffffffffff16815260200190815260200160002060009054906101000a900473ffffffffffffffffffffffffffffffffffffffff1673ffffffffffffffffffffffffffffffffffffffff16145b610e2257600080fd5b610e2d8585346114e1565b610e3987878787611725565b50505050505050565b60606000610e4e611862565b90506000816010016000858152602001908152602001600020805480602002602001604051908101604052809291908181526020016000905b82821015610f195783829060005260206000209060020201604051806040016040529081600082015481526020016001820160009054906101000a900473ffffffffffffffffffffffffffffffffffffffff1673ffffffffffffffffffffffffffffffffffffffff1673ffffffffffffffffffffffffffffffffffffffff168152505081526020019060010190610e87565b5050505090508092505050919050565b60606000610f35611862565b905080600301610f4484611867565b604051602001610f55929190612b43565b604051602081830303815290604052915050919050565b600080610f77611862565b905080600d01600084815260200190815260200160002060009054906101000a900473ffffffffffffffffffffffffffffffffffffffff16915050919050565b610fc081611935565b610fff576040517f08c379a0000000000000000000000000000000000000000000000000000000008152600401610ff690612bb3565b60405180910390fd5b50565b600033905090565b6000808273ffffffffffffffffffffffffffffffffffffffff163b119050919050565b50505050565b61103c836119b0565b61107b576040517f08c379a000000000000000000000000000000000000000000000000000000000815260040161107290612c45565b60405180910390fd5b60008061108785611a69565b91509150600060405180604001604052808581526020018773ffffffffffffffffffffffffffffffffffffffff16815250905060006110c4611862565b905083801561112457508281600f01600088815260200190815260200160002060008973ffffffffffffffffffffffffffffffffffffffff1673ffffffffffffffffffffffffffffffffffffffff16815260200190815260200160002054105b15611138576111338287611b34565b611143565b6111428287611dae565b5b50505050505050565b50505050565b80600060100160008481526020019081526020016000208054905011156111a5576040517f3ce62f1600000000000000000000000000000000000000000000000000000000815260040160405180910390fd5b6000601001600083815260200190815260200160002060006111c79190612239565b817f8ac4a0d65950c3e40448afb2260e2e0ec36ea15644d9b39e37e85472e5f9445160405160405180910390a25050565b611200612209565b8215611217576112108987610995565b9050611224565b611221898761032c565b90505b61122f818686611ef8565b61123d898787878787611f77565b821561126757611262600060100160008b815260200190815260200160002087611f7f565b611347565b600060110160008673ffffffffffffffffffffffffffffffffffffffff1673ffffffffffffffffffffffffffffffffffffffff1681526020019081526020016000206000858152602001908152602001600020600090556000600f0160008a815260200190815260200160002060008673ffffffffffffffffffffffffffffffffffffffff1673ffffffffffffffffffffffffffffffffffffffff168152602001908152602001600020600081548092919061132290612c94565b91905055506113466000600e0160008b815260200190815260200160002087611f7f565b5b600073ffffffffffffffffffffffffffffffffffffffff168873ffffffffffffffffffffffffffffffffffffffff161461147657600087036113f9578473ffffffffffffffffffffffffffffffffffffffff1663b88d4fde308a87866040518563ffffffff1660e01b81526004016113c29493929190612d12565b600060405180830381600087803b1580156113dc57600080fd5b505af11580156113f0573d6000803e3d6000fd5b50505050611475565b806020015173ffffffffffffffffffffffffffffffffffffffff1663064c0a3a308a84600001518b876040518663ffffffff1660e01b8152600401611442959493929190612d5e565b600060405180830381600087803b15801561145c57600080fd5b505af1158015611470573d6000803e3d6000fd5b505050505b5b838573ffffffffffffffffffffffffffffffffffffffff168a7f2bedee38cdb22411c14554191243c0e117c0088ddae3459876acd46a0fd5381589876040516114c0929190612db8565b60405180910390a46114d68987878787876120a2565b505050505050505050565b60006114eb611862565b905060008160090160009054906101000a900473ffffffffffffffffffffffffffffffffffffffff16905060008173ffffffffffffffffffffffffffffffffffffffff1663e336afb087876040518363ffffffff1660e01b8152600401611553929190612de1565b602060405180830381865afa158015611570573d6000803e3d6000fd5b505050506040513d601f19601f820116820180604052508101906115949190612e1f565b9050808410156115d9576040517f08c379a00000000000000000000000000000000000000000000000000000000081526004016115d090612ebe565b60405180910390fd5b60008273ffffffffffffffffffffffffffffffffffffffff16635678cf22886040518263ffffffff1660e01b81526004016116149190612674565b602060405180830381865afa158015611631573d6000803e3d6000fd5b505050506040513d601f19601f820116820180604052508101906116559190612e1f565b90506004810361171c578273ffffffffffffffffffffffffffffffffffffffff16630d9df72188886040518363ffffffff1660e01b815260040161169a929190612de1565b602060405180830381865afa1580156116b7573d6000803e3d6000fd5b505050506040513d601f19601f820116820180604052508101906116db9190612ef3565b1561171b576040517f08c379a000000000000000000000000000000000000000000000000000000000815260040161171290612f6c565b60405180910390fd5b5b50505050505050565b60006117318585610995565b905061173e818484611ef8565b60008060110160008573ffffffffffffffffffffffffffffffffffffffff1673ffffffffffffffffffffffffffffffffffffffff168152602001908152602001600020600084815260200190815260200160002054146117ca576040517f188a497300000000000000000000000000000000000000000000000000000000815260040160405180910390fd5b6117d6858585856120aa565b6117f56000601001600087815260200190815260200160002085611f7f565b6117ff8186611b34565b818373ffffffffffffffffffffffffffffffffffffffff16867f29486b9e2ae569b440933a9b1b421467306fa21f3dcad439c262910a634963a9876040516118479190612860565b60405180910390a461185b858585856120b0565b5050505050565b600090565b606060006001611876846120b6565b01905060008167ffffffffffffffff81111561189557611894612699565b5b6040519080825280601f01601f1916602001820160405280156118c75781602001600182028036833780820191505090505b509050600082602001820190505b60011561192a578080600190039150507f3031323334353637383961626364656600000000000000000000000000000000600a86061a8153600a858161191e5761191d612f8c565b5b049450600085036118d5575b819350505050919050565b600080611940611862565b9050600073ffffffffffffffffffffffffffffffffffffffff1681600d01600085815260200190815260200160002060009054906101000a900473ffffffffffffffffffffffffffffffffffffffff1673ffffffffffffffffffffffffffffffffffffffff161415915050919050565b6000806119bb611862565b905060008160090160009054906101000a900473ffffffffffffffffffffffffffffffffffffffff1690508073ffffffffffffffffffffffffffffffffffffffff1663d936547e856040518263ffffffff1660e01b8152600401611a1f9190612674565b602060405180830381865afa158015611a3c573d6000803e3d6000fd5b505050506040513d601f19601f82011682018060405250810190611a609190612ef3565b92505050919050565b6000806000611a76611862565b905060008160090160009054906101000a900473ffffffffffffffffffffffffffffffffffffffff1690506000808273ffffffffffffffffffffffffffffffffffffffff1663d9a1693b886040518263ffffffff1660e01b8152600401611add9190612674565b6040805180830381865afa158015611af9573d6000803e3d6000fd5b505050506040513d601f19601f82011682018060405250810190611b1d9190612fbb565b809250819350505081819550955050505050915091565b6000611b3e611862565b905060008360200151905060008460000151905060008360110160008473ffffffffffffffffffffffffffffffffffffffff1673ffffffffffffffffffffffffffffffffffffffff16815260200190815260200160002060008381526020019081526020016000205414611be7576040517f08c379a0000000000000000000000000000000000000000000000000000000008152600401611bde90613047565b60405180910390fd5b600083600e01600086815260200190815260200160002080549050905083600e0160008681526020019081526020016000208690806001815401808255809150506001900390600052602060002090600202016000909190919091506000820151816000015560208201518160010160006101000a81548173ffffffffffffffffffffffffffffffffffffffff021916908373ffffffffffffffffffffffffffffffffffffffff160217905550505060018460110160008573ffffffffffffffffffffffffffffffffffffffff1673ffffffffffffffffffffffffffffffffffffffff16815260200190815260200160002060008481526020019081526020016000208190555083600f01600086815260200190815260200160002060008473ffffffffffffffffffffffffffffffffffffffff1673ffffffffffffffffffffffffffffffffffffffff1681526020019081526020016000206000815480929190611d5190613067565b9190505550818373ffffffffffffffffffffffffffffffffffffffff16867f29486b9e2ae569b440933a9b1b421467306fa21f3dcad439c262910a634963a984604051611d9e9190612860565b60405180910390a4505050505050565b6000611db982610e42565b5190506080811015611e69576000611dcf611862565b90508060100160008481526020019081526020016000208490806001815401808255809150506001900390600052602060002090600202016000909190919091506000820151816000015560208201518160010160006101000a81548173ffffffffffffffffffffffffffffffffffffffff021916908373ffffffffffffffffffffffffffffffffffffffff160217905550505050611e9b565b6040517fa53c8c0500000000000000000000000000000000000000000000000000000000815260040160405180910390fd5b8260000151836020015173ffffffffffffffffffffffffffffffffffffffff16837fe65085e689b77b126ba0bac3b079aa8288f19f4d5445af11c76003f8ab3075dd84604051611eeb9190612860565b60405180910390a4505050565b826020015173ffffffffffffffffffffffffffffffffffffffff168273ffffffffffffffffffffffffffffffffffffffff16141580611f3b575082600001518114155b15611f72576040517fe707e58200000000000000000000000000000000000000000000000000000000815260040160405180910390fd5b505050565b505050505050565b8160018380549050611f9191906130af565b81548110611fa257611fa16129e0565b5b9060005260206000209060020201828281548110611fc357611fc26129e0565b5b9060005260206000209060020201600082015481600001556001820160009054906101000a900473ffffffffffffffffffffffffffffffffffffffff168160010160006101000a81548173ffffffffffffffffffffffffffffffffffffffff021916908373ffffffffffffffffffffffffffffffffffffffff16021790555090505081805480612056576120556130e3565b5b60019003818190600052602060002090600202016000808201600090556001820160006101000a81549073ffffffffffffffffffffffffffffffffffffffff0219169055505090555050565b505050505050565b50505050565b50505050565b600080600090507a184f03e93ff9f4daa797ed6e38ed64bf6a1f0100000000000000008310612114577a184f03e93ff9f4daa797ed6e38ed64bf6a1f010000000000000000838161210a57612109612f8c565b5b0492506040810190505b6d04ee2d6d415b85acef81000000008310612151576d04ee2d6d415b85acef8100000000838161214757612146612f8c565b5b0492506020810190505b662386f26fc10000831061218057662386f26fc10000838161217657612175612f8c565b5b0492506010810190505b6305f5e10083106121a9576305f5e100838161219f5761219e612f8c565b5b0492506008810190505b61271083106121ce5761271083816121c4576121c3612f8c565b5b0492506004810190505b606483106121f157606483816121e7576121e6612f8c565b5b0492506002810190505b600a8310612200576001810190505b80915050919050565b604051806040016040528060008152602001600073ffffffffffffffffffffffffffffffffffffffff1681525090565b508054600082556002029060005260206000209081019061225a919061225d565b50565b5b8082111561229f576000808201600090556001820160006101000a81549073ffffffffffffffffffffffffffffffffffffffff02191690555060020161225e565b5090565b6000604051905090565b600080fd5b600080fd5b6000819050919050565b6122ca816122b7565b81146122d557600080fd5b50565b6000813590506122e7816122c1565b92915050565b60008060408385031215612304576123036122ad565b5b6000612312858286016122d8565b9250506020612323858286016122d8565b9150509250929050565b612336816122b7565b82525050565b600073ffffffffffffffffffffffffffffffffffffffff82169050919050565b60006123678261233c565b9050919050565b6123778161235c565b82525050565b604082016000820151612393600085018261232d565b5060208201516123a6602085018261236e565b50505050565b60006040820190506123c1600083018461237d565b92915050565b6123d08161235c565b81146123db57600080fd5b50565b6000813590506123ed816123c7565b92915050565b6000806040838503121561240a576124096122ad565b5b6000612418858286016123de565b9250506020612429858286016122d8565b9150509250929050565b60008115159050919050565b61244881612433565b82525050565b6000602082019050612463600083018461243f565b92915050565b60006020828403121561247f5761247e6122ad565b5b600061248d848285016122d8565b91505092915050565b600081519050919050565b600082825260208201905092915050565b6000819050602082019050919050565b6040820160008201516124d8600085018261232d565b5060208201516124eb602085018261236e565b50505050565b60006124fd83836124c2565b60408301905092915050565b6000602082019050919050565b600061252182612496565b61252b81856124a1565b9350612536836124b2565b8060005b8381101561256757815161254e88826124f1565b975061255983612509565b92505060018101905061253a565b5085935050505092915050565b6000602082019050818103600083015261258e8184612516565b905092915050565b61259f816122b7565b82525050565b600081519050919050565b600082825260208201905092915050565b60005b838110156125df5780820151818401526020810190506125c4565b60008484015250505050565b6000601f19601f8301169050919050565b6000612607826125a5565b61261181856125b0565b93506126218185602086016125c1565b61262a816125eb565b840191505092915050565b600060408201905061264a6000830185612596565b818103602083015261265c81846125fc565b90509392505050565b61266e8161235c565b82525050565b60006020820190506126896000830184612665565b92915050565b600080fd5b600080fd5b7f4e487b7100000000000000000000000000000000000000000000000000000000600052604160045260246000fd5b6126d1826125eb565b810181811067ffffffffffffffff821117156126f0576126ef612699565b5b80604052505050565b60006127036122a3565b905061270f82826126c8565b919050565b600067ffffffffffffffff82111561272f5761272e612699565b5b612738826125eb565b9050602081019050919050565b82818337600083830152505050565b600061276761276284612714565b6126f9565b90508281526020810184848401111561278357612782612694565b5b61278e848285612745565b509392505050565b600082601f8301126127ab576127aa61268f565b5b81356127bb848260208601612754565b91505092915050565b6000806000606084860312156127dd576127dc6122ad565b5b60006127eb868287016122d8565b93505060206127fc868287016122d8565b925050604084013567ffffffffffffffff81111561281d5761281c6122b2565b5b61282986828701612796565b9150509250925092565b600060208284031215612849576128486122ad565b5b6000612857848285016123de565b91505092915050565b60006020820190506128756000830184612596565b92915050565b61288481612433565b811461288f57600080fd5b50565b6000813590506128a18161287b565b92915050565b600080600080600080600080610100898b0312156128c8576128c76122ad565b5b60006128d68b828c016122d8565b98505060206128e78b828c016123de565b97505060406128f88b828c016122d8565b96505060606129098b828c016122d8565b955050608061291a8b828c016123de565b94505060a061292b8b828c016122d8565b93505060c061293c8b828c01612892565b92505060e089013567ffffffffffffffff81111561295d5761295c6122b2565b5b6129698b828c01612796565b9150509295985092959890939650565b60008060008060808587031215612993576129926122ad565b5b60006129a1878288016122d8565b94505060206129b2878288016122d8565b93505060406129c3878288016123de565b92505060606129d4878288016122d8565b91505092959194509250565b7f4e487b7100000000000000000000000000000000000000000000000000000000600052603260045260246000fd5b7f4e487b7100000000000000000000000000000000000000000000000000000000600052602260045260246000fd5b60006002820490506001821680612a5657607f821691505b602082108103612a6957612a68612a0f565b5b50919050565b600081905092915050565b60008190508160005260206000209050919050565b60008154612a9c81612a3e565b612aa68186612a6f565b94506001821660008114612ac15760018114612ad657612b09565b60ff1983168652811515820286019350612b09565b612adf85612a7a565b60005b83811015612b0157815481890152600182019150602081019050612ae2565b838801955050505b50505092915050565b6000612b1d826125a5565b612b278185612a6f565b9350612b378185602086016125c1565b80840191505092915050565b6000612b4f8285612a8f565b9150612b5b8284612b12565b91508190509392505050565b7f696e76616c696420746f6b656e20696421000000000000000000000000000000600082015250565b6000612b9d6011836125b0565b9150612ba882612b67565b602082019050919050565b60006020820190508181036000830152612bcc81612b90565b9050919050565b7f6368696c64204e46542061646472657373206973206e6f742077686974656c6960008201527f7374656400000000000000000000000000000000000000000000000000000000602082015250565b6000612c2f6024836125b0565b9150612c3a82612bd3565b604082019050919050565b60006020820190508181036000830152612c5e81612c22565b9050919050565b7f4e487b7100000000000000000000000000000000000000000000000000000000600052601160045260246000fd5b6000612c9f826122b7565b915060008203612cb257612cb1612c65565b5b600182039050919050565b600081519050919050565b600082825260208201905092915050565b6000612ce482612cbd565b612cee8185612cc8565b9350612cfe8185602086016125c1565b612d07816125eb565b840191505092915050565b6000608082019050612d276000830187612665565b612d346020830186612665565b612d416040830185612596565b8181036060830152612d538184612cd9565b905095945050505050565b600060a082019050612d736000830188612665565b612d806020830187612665565b612d8d6040830186612596565b612d9a6060830185612596565b8181036080830152612dac8184612cd9565b90509695505050505050565b6000604082019050612dcd6000830185612596565b612dda602083018461243f565b9392505050565b6000604082019050612df66000830185612665565b612e036020830184612596565b9392505050565b600081519050612e19816122c1565b92915050565b600060208284031215612e3557612e346122ad565b5b6000612e4384828501612e0a565b91505092915050565b7f756e6465722070726963656420666f7220616363657074696e67206368696c6460008201527f72656e2100000000000000000000000000000000000000000000000000000000602082015250565b6000612ea86024836125b0565b9150612eb382612e4c565b604082019050919050565b60006020820190508181036000830152612ed781612e9b565b9050919050565b600081519050612eed8161287b565b92915050565b600060208284031215612f0957612f086122ad565b5b6000612f1784828501612ede565b91505092915050565b7f74686973206974656d20697320616c7265616479206578706972656400000000600082015250565b6000612f56601c836125b0565b9150612f6182612f20565b602082019050919050565b60006020820190508181036000830152612f8581612f49565b9050919050565b7f4e487b7100000000000000000000000000000000000000000000000000000000600052601260045260246000fd5b60008060408385031215612fd257612fd16122ad565b5b6000612fe085828601612ede565b9250506020612ff185828601612e0a565b9150509250929050565b7f6368696c6420616c726561647920657869737473000000000000000000000000600082015250565b60006130316014836125b0565b915061303c82612ffb565b602082019050919050565b6000602082019050818103600083015261306081613024565b9050919050565b6000613072826122b7565b91507fffffffffffffffffffffffffffffffffffffffffffffffffffffffffffffffff82036130a4576130a3612c65565b5b600182019050919050565b60006130ba826122b7565b91506130c5836122b7565b92508282039050818111156130dd576130dc612c65565b5b92915050565b7f4e487b7100000000000000000000000000000000000000000000000000000000600052603160045260246000fdfea26469706673582212203f7a09aa9ce427083c8464de09f971abcb04f903195f2713f116406cf70690f164736f6c63430008120033",
  "linkReferences": {},
  "deployedLinkReferences": {}
}