{
  "_format": "hh-sol-artifact-1",
  "contractName": "RMRKTokenURI",
  "sourceName": "@rmrk-team/evm-contracts/contracts/RMRK/utils/RMRKTokenURI.sol",
  "abi": [
    {
      "inputs": [
        {
          "internalType": "string",
          "name": "tokenURI_",
          "type": "string"
        },
        {
          "internalType": "bool",
          "name": "isEnumerable",
          "type": "bool"
        }
      ],
      "stateMutability": "nonpayable",
      "type": "constructor"
    },
    {
      "inputs": [
        {
          "internalType": "uint256",
          "name": "tokenId",
          "type": "uint256"
        }
      ],
      "name": "tokenURI",
      "outputs": [
        {
          "internalType": "string",
          "name": "",
          "type": "string"
        }
      ],
      "stateMutability": "view",
      "type": "function"
    }
  ],
  "bytecode": "0x60806040523480156200001157600080fd5b5060405162000c4f38038062000c4f833981810160405281019062000037919062000251565b6200004982826200005160201b60201c565b5050620005e9565b816000908162000062919062000502565b50806200007157600062000074565b60015b60ff166001819055505050565b6000604051905090565b600080fd5b600080fd5b600080fd5b600080fd5b6000601f19601f8301169050919050565b7f4e487b7100000000000000000000000000000000000000000000000000000000600052604160045260246000fd5b620000ea826200009f565b810181811067ffffffffffffffff821117156200010c576200010b620000b0565b5b80604052505050565b60006200012162000081565b90506200012f8282620000df565b919050565b600067ffffffffffffffff821115620001525762000151620000b0565b5b6200015d826200009f565b9050602081019050919050565b60005b838110156200018a5780820151818401526020810190506200016d565b60008484015250505050565b6000620001ad620001a78462000134565b62000115565b905082815260208101848484011115620001cc57620001cb6200009a565b5b620001d98482856200016a565b509392505050565b600082601f830112620001f957620001f862000095565b5b81516200020b84826020860162000196565b91505092915050565b60008115159050919050565b6200022b8162000214565b81146200023757600080fd5b50565b6000815190506200024b8162000220565b92915050565b600080604083850312156200026b576200026a6200008b565b5b600083015167ffffffffffffffff8111156200028c576200028b62000090565b5b6200029a85828601620001e1565b9250506020620002ad858286016200023a565b9150509250929050565b600081519050919050565b7f4e487b7100000000000000000000000000000000000000000000000000000000600052602260045260246000fd5b600060028204905060018216806200030a57607f821691505b60208210810362000320576200031f620002c2565b5b50919050565b60008190508160005260206000209050919050565b60006020601f8301049050919050565b600082821b905092915050565b6000600883026200038a7fffffffffffffffffffffffffffffffffffffffffffffffffffffffffffffffff826200034b565b6200039686836200034b565b95508019841693508086168417925050509392505050565b6000819050919050565b6000819050919050565b6000620003e3620003dd620003d784620003ae565b620003b8565b620003ae565b9050919050565b6000819050919050565b620003ff83620003c2565b620004176200040e82620003ea565b84845462000358565b825550505050565b600090565b6200042e6200041f565b6200043b818484620003f4565b505050565b5b8181101562000463576200045760008262000424565b60018101905062000441565b5050565b601f821115620004b2576200047c8162000326565b62000487846200033b565b8101602085101562000497578190505b620004af620004a6856200033b565b83018262000440565b50505b505050565b600082821c905092915050565b6000620004d760001984600802620004b7565b1980831691505092915050565b6000620004f28383620004c4565b9150826002028217905092915050565b6200050d82620002b7565b67ffffffffffffffff811115620005295762000528620000b0565b5b620005358254620002f1565b6200054282828562000467565b600060209050601f8311600181146200057a576000841562000565578287015190505b620005718582620004e4565b865550620005e1565b601f1984166200058a8662000326565b60005b82811015620005b4578489015182556001820191506020850194506020810190506200058d565b86831015620005d45784890151620005d0601f891682620004c4565b8355505b6001600288020188555050505b505050505050565b61065680620005f96000396000f3fe608060405234801561001057600080fd5b506004361061002b5760003560e01c8063c87b56dd14610030575b600080fd5b61004a6004803603810190610045919061038b565b610060565b6040516100579190610448565b60405180910390f35b606060006001541461009c5760006100778361012f565b60405160200161008892919061059e565b604051602081830303815290604052610128565b600080546100a990610499565b80601f01602080910402602001604051908101604052809291908181526020018280546100d590610499565b80156101225780601f106100f757610100808354040283529160200191610122565b820191906000526020600020905b81548152906001019060200180831161010557829003601f168201915b50505050505b9050919050565b60606000600161013e846101fd565b01905060008167ffffffffffffffff81111561015d5761015c6105c2565b5b6040519080825280601f01601f19166020018201604052801561018f5781602001600182028036833780820191505090505b509050600082602001820190505b6001156101f2578080600190039150507f3031323334353637383961626364656600000000000000000000000000000000600a86061a8153600a85816101e6576101e56105f1565b5b0494506000850361019d575b819350505050919050565b600080600090507a184f03e93ff9f4daa797ed6e38ed64bf6a1f010000000000000000831061025b577a184f03e93ff9f4daa797ed6e38ed64bf6a1f0100000000000000008381610251576102506105f1565b5b0492506040810190505b6d04ee2d6d415b85acef81000000008310610298576d04ee2d6d415b85acef8100000000838161028e5761028d6105f1565b5b0492506020810190505b662386f26fc1000083106102c757662386f26fc1000083816102bd576102bc6105f1565b5b0492506010810190505b6305f5e10083106102f0576305f5e10083816102e6576102e56105f1565b5b0492506008810190505b612710831061031557612710838161030b5761030a6105f1565b5b0492506004810190505b60648310610338576064838161032e5761032d6105f1565b5b0492506002810190505b600a8310610347576001810190505b80915050919050565b600080fd5b6000819050919050565b61036881610355565b811461037357600080fd5b50565b6000813590506103858161035f565b92915050565b6000602082840312156103a1576103a0610350565b5b60006103af84828501610376565b91505092915050565b600081519050919050565b600082825260208201905092915050565b60005b838110156103f25780820151818401526020810190506103d7565b60008484015250505050565b6000601f19601f8301169050919050565b600061041a826103b8565b61042481856103c3565b93506104348185602086016103d4565b61043d816103fe565b840191505092915050565b60006020820190508181036000830152610462818461040f565b905092915050565b7f4e487b7100000000000000000000000000000000000000000000000000000000600052602260045260246000fd5b600060028204905060018216806104b157607f821691505b6020821081036104c4576104c361046a565b5b50919050565b600081905092915050565b60008190508160005260206000209050919050565b600081546104f781610499565b61050181866104ca565b9450600182166000811461051c576001811461053157610564565b60ff1983168652811515820286019350610564565b61053a856104d5565b60005b8381101561055c5781548189015260018201915060208101905061053d565b838801955050505b50505092915050565b6000610578826103b8565b61058281856104ca565b93506105928185602086016103d4565b80840191505092915050565b60006105aa82856104ea565b91506105b6828461056d565b91508190509392505050565b7f4e487b7100000000000000000000000000000000000000000000000000000000600052604160045260246000fd5b7f4e487b7100000000000000000000000000000000000000000000000000000000600052601260045260246000fdfea2646970667358221220afa1f2dcc738bcdca14a52ce28c4f0f8b1748d82d077fb6565c297df775eb19f64736f6c63430008120033",
  "linkReferences": {},
  "deployedLinkReferences": {}
}