{
  "_format": "hh-sol-artifact-1",
  "contractName": "WhitelistFacet",
  "sourceName": "contracts/impl/facets/WhitelistFacet.sol",
  "abi": [
    {
      "anonymous": false,
      "inputs": [
        {
          "indexed": true,
          "internalType": "uint32",
          "name": "whitelistId",
          "type": "uint32"
        }
      ],
      "name": "WhitelistCreated",
      "type": "event"
    },
    {
      "anonymous": false,
      "inputs": [
        {
          "indexed": true,
          "internalType": "uint32",
          "name": "whitelistId",
          "type": "uint32"
        },
        {
          "indexed": true,
          "internalType": "address",
          "name": "newOwner",
          "type": "address"
        }
      ],
      "name": "WhitelistOwnershipTransferred",
      "type": "event"
    },
    {
      "anonymous": false,
      "inputs": [
        {
          "indexed": true,
          "internalType": "uint32",
          "name": "whitelistId",
          "type": "uint32"
        }
      ],
      "name": "WhitelistUpdated",
      "type": "event"
    },
    {
      "inputs": [
        {
          "internalType": "string",
          "name": "_name",
          "type": "string"
        },
        {
          "internalType": "address[]",
          "name": "_whitelistAddresses",
          "type": "address[]"
        }
      ],
      "name": "createWhitelist",
      "outputs": [],
      "stateMutability": "nonpayable",
      "type": "function"
    },
    {
      "inputs": [
        {
          "internalType": "uint32",
          "name": "_whitelistId",
          "type": "uint32"
        }
      ],
      "name": "getWhitelist",
      "outputs": [
        {
          "components": [
            {
              "internalType": "address",
              "name": "owner",
              "type": "address"
            },
            {
              "internalType": "string",
              "name": "name",
              "type": "string"
            },
            {
              "internalType": "address[]",
              "name": "addresses",
              "type": "address[]"
            }
          ],
          "internalType": "struct Whitelist",
          "name": "",
          "type": "tuple"
        }
      ],
      "stateMutability": "view",
      "type": "function"
    },
    {
      "inputs": [
        {
          "internalType": "uint32",
          "name": "_whitelistId",
          "type": "uint32"
        },
        {
          "internalType": "uint256",
          "name": "_actionRight",
          "type": "uint256"
        }
      ],
      "name": "getWhitelistAccessRight",
      "outputs": [
        {
          "internalType": "uint256",
          "name": "",
          "type": "uint256"
        }
      ],
      "stateMutability": "view",
      "type": "function"
    },
    {
      "inputs": [],
      "name": "getWhitelistsLength",
      "outputs": [
        {
          "internalType": "uint256",
          "name": "",
          "type": "uint256"
        }
      ],
      "stateMutability": "view",
      "type": "function"
    },
    {
      "inputs": [
        {
          "internalType": "uint32",
          "name": "_whitelistId",
          "type": "uint32"
        },
        {
          "internalType": "address",
          "name": "_whitelistAddress",
          "type": "address"
        }
      ],
      "name": "isWhitelisted",
      "outputs": [
        {
          "internalType": "uint256",
          "name": "",
          "type": "uint256"
        }
      ],
      "stateMutability": "view",
      "type": "function"
    },
    {
      "inputs": [
        {
          "internalType": "uint32",
          "name": "_whitelistId",
          "type": "uint32"
        },
        {
          "internalType": "address[]",
          "name": "_whitelistAddresses",
          "type": "address[]"
        }
      ],
      "name": "removeAddressesFromWhitelist",
      "outputs": [],
      "stateMutability": "nonpayable",
      "type": "function"
    },
    {
      "inputs": [
        {
          "internalType": "uint32",
          "name": "_whitelistId",
          "type": "uint32"
        },
        {
          "internalType": "uint256",
          "name": "_actionRight",
          "type": "uint256"
        },
        {
          "internalType": "uint256",
          "name": "_accessRight",
          "type": "uint256"
        }
      ],
      "name": "setWhitelistAccessRight",
      "outputs": [],
      "stateMutability": "nonpayable",
      "type": "function"
    },
    {
      "inputs": [
        {
          "internalType": "uint32",
          "name": "_whitelistId",
          "type": "uint32"
        },
        {
          "internalType": "address",
          "name": "_whitelistOwner",
          "type": "address"
        }
      ],
      "name": "transferOwnershipOfWhitelist",
      "outputs": [],
      "stateMutability": "nonpayable",
      "type": "function"
    },
    {
      "inputs": [
        {
          "internalType": "uint32",
          "name": "_whitelistId",
          "type": "uint32"
        },
        {
          "internalType": "address[]",
          "name": "_whitelistAddresses",
          "type": "address[]"
        }
      ],
      "name": "updateWhitelist",
      "outputs": [],
      "stateMutability": "nonpayable",
      "type": "function"
    },
    {
      "inputs": [
        {
          "internalType": "uint32",
          "name": "whitelistId",
          "type": "uint32"
        }
      ],
      "name": "whitelistExists",
      "outputs": [
        {
          "internalType": "bool",
          "name": "exists",
          "type": "bool"
        }
      ],
      "stateMutability": "view",
      "type": "function"
    },
    {
      "inputs": [
        {
          "internalType": "uint32",
          "name": "_whitelistId",
          "type": "uint32"
        }
      ],
      "name": "whitelistOwner",
      "outputs": [
        {
          "internalType": "address",
          "name": "",
          "type": "address"
        }
      ],
      "stateMutability": "view",
      "type": "function"
    }
  ],
  "bytecode": "0x608060405234801561001057600080fd5b50612133806100206000396000f3fe608060405234801561001057600080fd5b50600436106100a95760003560e01c80636d4962e5116100715780636d4962e5146101765780637c208cb7146101a6578063a51793ac146101c4578063d508d9a8146101e0578063e67e9908146101fc578063ecf5f9911461022c576100a9565b806309f0dd09146100ae5780631dd6fdab146100ca578063243ce171146100e65780636491601d1461011657806366e0754014610146575b600080fd5b6100c860048036038101906100c39190611466565b610248565b005b6100e460048036038101906100df919061150b565b610377565b005b61010060048036038101906100fb919061156b565b610490565b60405161010d919061173d565b60405180910390f35b610130600480360381019061012b919061156b565b610671565b60405161013d919061177a565b60405180910390f35b610160600480360381019061015b91906117cb565b610683565b60405161016d919061181a565b60405180910390f35b610190600480360381019061018b919061156b565b6106c0565b60405161019d9190611844565b60405180910390f35b6101ae61073e565b6040516101bb919061181a565b60405180910390f35b6101de60048036038101906101d9919061185f565b61074d565b005b6101fa60048036038101906101f59190611908565b6107ed565b005b61021660048036038101906102119190611466565b6109f9565b604051610223919061181a565b60405180910390f35b6102466004803603810190610241919061150b565b610a62565b005b61025182610b7b565b610290576040517f08c379a000000000000000000000000000000000000000000000000000000000815260040161028790611a0c565b60405180910390fd5b61029982610bb3565b6102d8576040517f08c379a00000000000000000000000000000000000000000000000000000000081526004016102cf90611a9e565b60405180910390fd5b60006102e383610c23565b9050818160000160006101000a81548173ffffffffffffffffffffffffffffffffffffffff021916908373ffffffffffffffffffffffffffffffffffffffff1602179055508173ffffffffffffffffffffffffffffffffffffffff168363ffffffff167f250c9a2c80b4a6539a440a03220336f427a4c6bde294534d97d89fba743449c460405160405180910390a3505050565b600082829050116103bd576040517f08c379a00000000000000000000000000000000000000000000000000000000081526004016103b490611b30565b60405180910390fd5b6103c683610b7b565b610405576040517f08c379a00000000000000000000000000000000000000000000000000000000081526004016103fc90611a0c565b60405180910390fd5b61040e83610bb3565b61044d576040517f08c379a000000000000000000000000000000000000000000000000000000000815260040161044490611a9e565b60405180910390fd5b610458838383610cb6565b8263ffffffff167fe8d847d2ee36950513cba49d6ac0e0012bb3436d5ab55385e2d7a2834d96d9b760405160405180910390a2505050565b6104986112e4565b6104a182610b7b565b6104e0576040517f08c379a00000000000000000000000000000000000000000000000000000000081526004016104d790611a0c565b60405180910390fd5b6104e982610c23565b6040518060600160405290816000820160009054906101000a900473ffffffffffffffffffffffffffffffffffffffff1673ffffffffffffffffffffffffffffffffffffffff1673ffffffffffffffffffffffffffffffffffffffff16815260200160018201805461055a90611b7f565b80601f016020809104026020016040519081016040528092919081815260200182805461058690611b7f565b80156105d35780601f106105a8576101008083540402835291602001916105d3565b820191906000526020600020905b8154815290600101906020018083116105b657829003601f168201915b505050505081526020016002820180548060200260200160405190810160405280929190818152602001828054801561066157602002820191906000526020600020905b8160009054906101000a900473ffffffffffffffffffffffffffffffffffffffff1673ffffffffffffffffffffffffffffffffffffffff1681526020019060010190808311610617575b5050505050815250509050919050565b600061067c82610b7b565b9050919050565b60008060160160008463ffffffff1663ffffffff168152602001908152602001600020600083815260200190815260200160002054905092915050565b60006106cb82610b7b565b61070a576040517f08c379a000000000000000000000000000000000000000000000000000000000815260040161070190611a0c565b60405180910390fd5b61071382610c23565b60000160009054906101000a900473ffffffffffffffffffffffffffffffffffffffff169050919050565b60008060140180549050905090565b61075683610b7b565b610795576040517f08c379a000000000000000000000000000000000000000000000000000000000815260040161078c90611a0c565b60405180910390fd5b61079e83610bb3565b6107dd576040517f08c379a00000000000000000000000000000000000000000000000000000000081526004016107d490611a9e565b60405180910390fd5b6107e8838383610d0e565b505050565b60008282905011610833576040517f08c379a000000000000000000000000000000000000000000000000000000000815260040161082a90611b30565b60405180910390fd5b60008484905011610879576040517f08c379a000000000000000000000000000000000000000000000000000000000815260040161087090611c22565b60405180910390fd5b6000610883610dd5565b905060606000604051806060016040528061089c610dfc565b73ffffffffffffffffffffffffffffffffffffffff16815260200188888080601f016020809104026020016040519081016040528093929190818152602001838380828437600081840152601f19601f820116905080830192505050505050508152602001838152509050600060140181908060018154018082558091505060019003906000526020600020906003020160009091909190915060008201518160000160006101000a81548173ffffffffffffffffffffffffffffffffffffffff021916908373ffffffffffffffffffffffffffffffffffffffff16021790555060208201518160010190816109929190611e1d565b5060408201518160020190805190602001906109af92919061131b565b5050506109bd838686610e04565b8263ffffffff167f333efbc104f53485a1ba651908877d70174cf47cbfe61260358bfcabfcfbec3560405160405180910390a250505050505050565b60008060150160008463ffffffff1663ffffffff16815260200190815260200160002060008373ffffffffffffffffffffffffffffffffffffffff1673ffffffffffffffffffffffffffffffffffffffff16815260200190815260200160002054905092915050565b60008282905011610aa8576040517f08c379a0000000000000000000000000000000000000000000000000000000008152600401610a9f90611b30565b60405180910390fd5b610ab183610b7b565b610af0576040517f08c379a0000000000000000000000000000000000000000000000000000000008152600401610ae790611a0c565b60405180910390fd5b610af983610bb3565b610b38576040517f08c379a0000000000000000000000000000000000000000000000000000000008152600401610b2f90611a9e565b60405180910390fd5b610b43838383610e04565b8263ffffffff167fe8d847d2ee36950513cba49d6ac0e0012bb3436d5ab55385e2d7a2834d96d9b760405160405180910390a2505050565b600080610b86610e5c565b90508263ffffffff16816014018054905010158015610bab575060008363ffffffff16115b915050919050565b600080610bbf83610c23565b9050610bc9610dfc565b73ffffffffffffffffffffffffffffffffffffffff168160000160009054906101000a900473ffffffffffffffffffffffffffffffffffffffff1673ffffffffffffffffffffffffffffffffffffffff1614915050919050565b600080610c2e610e5c565b9050610c3983610b7b565b610c78576040517f08c379a0000000000000000000000000000000000000000000000000000000008152600401610c6f90611a0c565b60405180910390fd5b80601401600184610c899190611f1e565b63ffffffff1681548110610ca057610c9f611f56565b5b9060005260206000209060030201915050919050565b60005b82829050811015610d0857610cf584848484818110610cdb57610cda611f56565b5b9050602002016020810190610cf09190611f85565b610e61565b8080610d0090611fb2565b915050610cb9565b50505050565b610d188282611172565b610d57576040517f08c379a0000000000000000000000000000000000000000000000000000000008152600401610d4e90612046565b60405180910390fd5b6000610d61610e5c565b9050818160160160008663ffffffff1663ffffffff16815260200190815260200160002060008581526020019081526020016000208190555081838563ffffffff167fc3b4b5fafa8b36849d27cff5f377ec8290610027b9f765143d9b324462a32f5760405160405180910390a450505050565b600080610de0610e5c565b905060018160140180549050610df69190612066565b91505090565b600033905090565b60005b82829050811015610e5657610e4384848484818110610e2957610e28611f56565b5b9050602002016020810190610e3e9190611f85565b61118f565b8080610e4e90611fb2565b915050610e07565b50505050565b600090565b6000610e6b610e5c565b905060008160150160008563ffffffff1663ffffffff16815260200190815260200160002060008473ffffffffffffffffffffffffffffffffffffffff1673ffffffffffffffffffffffffffffffffffffffff16815260200190815260200160002054111561116d576000610edf84610c23565b9050600060018360150160008763ffffffff1663ffffffff16815260200190815260200160002060008673ffffffffffffffffffffffffffffffffffffffff1673ffffffffffffffffffffffffffffffffffffffff16815260200190815260200160002054610f4e919061209a565b9050600060018360020180549050610f66919061209a565b9050826002018181548110610f7e57610f7d611f56565b5b9060005260206000200160009054906101000a900473ffffffffffffffffffffffffffffffffffffffff16836002018381548110610fbf57610fbe611f56565b5b9060005260206000200160006101000a81548173ffffffffffffffffffffffffffffffffffffffff021916908373ffffffffffffffffffffffffffffffffffffffff160217905550600083600201828154811061101f5761101e611f56565b5b9060005260206000200160009054906101000a900473ffffffffffffffffffffffffffffffffffffffff169050836002018054806110605761105f6120ce565b5b6001900381819060005260206000200160006101000a81549073ffffffffffffffffffffffffffffffffffffffff021916905590556001836110a29190612066565b8560150160008963ffffffff1663ffffffff16815260200190815260200160002060008373ffffffffffffffffffffffffffffffffffffffff1673ffffffffffffffffffffffffffffffffffffffff1681526020019081526020016000208190555060008560150160008963ffffffff1663ffffffff16815260200190815260200160002060008873ffffffffffffffffffffffffffffffffffffffff1673ffffffffffffffffffffffffffffffffffffffff16815260200190815260200160002081905550505050505b505050565b60008083036111845760019050611189565b600090505b92915050565b6000611199610e5c565b905060008160150160008563ffffffff1663ffffffff16815260200190815260200160002060008473ffffffffffffffffffffffffffffffffffffffff1673ffffffffffffffffffffffffffffffffffffffff16815260200190815260200160002054036112df57600061120c84610c23565b905080600201839080600181540180825580915050600190039060005260206000200160009091909190916101000a81548173ffffffffffffffffffffffffffffffffffffffff021916908373ffffffffffffffffffffffffffffffffffffffff16021790555080600201805490508260150160008663ffffffff1663ffffffff16815260200190815260200160002060008573ffffffffffffffffffffffffffffffffffffffff1673ffffffffffffffffffffffffffffffffffffffff16815260200190815260200160002081905550505b505050565b6040518060600160405280600073ffffffffffffffffffffffffffffffffffffffff16815260200160608152602001606081525090565b828054828255906000526020600020908101928215611394579160200282015b828111156113935782518260006101000a81548173ffffffffffffffffffffffffffffffffffffffff021916908373ffffffffffffffffffffffffffffffffffffffff1602179055509160200191906001019061133b565b5b5090506113a191906113a5565b5090565b5b808211156113be5760008160009055506001016113a6565b5090565b600080fd5b600080fd5b600063ffffffff82169050919050565b6113e5816113cc565b81146113f057600080fd5b50565b600081359050611402816113dc565b92915050565b600073ffffffffffffffffffffffffffffffffffffffff82169050919050565b600061143382611408565b9050919050565b61144381611428565b811461144e57600080fd5b50565b6000813590506114608161143a565b92915050565b6000806040838503121561147d5761147c6113c2565b5b600061148b858286016113f3565b925050602061149c85828601611451565b9150509250929050565b600080fd5b600080fd5b600080fd5b60008083601f8401126114cb576114ca6114a6565b5b8235905067ffffffffffffffff8111156114e8576114e76114ab565b5b602083019150836020820283011115611504576115036114b0565b5b9250929050565b600080600060408486031215611524576115236113c2565b5b6000611532868287016113f3565b935050602084013567ffffffffffffffff811115611553576115526113c7565b5b61155f868287016114b5565b92509250509250925092565b600060208284031215611581576115806113c2565b5b600061158f848285016113f3565b91505092915050565b6115a181611428565b82525050565b600081519050919050565b600082825260208201905092915050565b60005b838110156115e15780820151818401526020810190506115c6565b60008484015250505050565b6000601f19601f8301169050919050565b6000611609826115a7565b61161381856115b2565b93506116238185602086016115c3565b61162c816115ed565b840191505092915050565b600081519050919050565b600082825260208201905092915050565b6000819050602082019050919050565b600061166f8383611598565b60208301905092915050565b6000602082019050919050565b600061169382611637565b61169d8185611642565b93506116a883611653565b8060005b838110156116d95781516116c08882611663565b97506116cb8361167b565b9250506001810190506116ac565b5085935050505092915050565b60006060830160008301516116fe6000860182611598565b506020830151848203602086015261171682826115fe565b915050604083015184820360408601526117308282611688565b9150508091505092915050565b6000602082019050818103600083015261175781846116e6565b905092915050565b60008115159050919050565b6117748161175f565b82525050565b600060208201905061178f600083018461176b565b92915050565b6000819050919050565b6117a881611795565b81146117b357600080fd5b50565b6000813590506117c58161179f565b92915050565b600080604083850312156117e2576117e16113c2565b5b60006117f0858286016113f3565b9250506020611801858286016117b6565b9150509250929050565b61181481611795565b82525050565b600060208201905061182f600083018461180b565b92915050565b61183e81611428565b82525050565b60006020820190506118596000830184611835565b92915050565b600080600060608486031215611878576118776113c2565b5b6000611886868287016113f3565b9350506020611897868287016117b6565b92505060406118a8868287016117b6565b9150509250925092565b60008083601f8401126118c8576118c76114a6565b5b8235905067ffffffffffffffff8111156118e5576118e46114ab565b5b602083019150836001820283011115611901576119006114b0565b5b9250929050565b60008060008060408587031215611922576119216113c2565b5b600085013567ffffffffffffffff8111156119405761193f6113c7565b5b61194c878288016118b2565b9450945050602085013567ffffffffffffffff81111561196f5761196e6113c7565b5b61197b878288016114b5565b925092505092959194509250565b600082825260208201905092915050565b7f57686974656c69737446616365743a2057686974656c697374206e6f7420666f60008201527f756e640000000000000000000000000000000000000000000000000000000000602082015250565b60006119f6602383611989565b9150611a018261199a565b604082019050919050565b60006020820190508181036000830152611a25816119e9565b9050919050565b7f57686974656c69737446616365743a204e6f742077686974656c697374206f7760008201527f6e65720000000000000000000000000000000000000000000000000000000000602082015250565b6000611a88602383611989565b9150611a9382611a2c565b604082019050919050565b60006020820190508181036000830152611ab781611a7b565b9050919050565b7f57686974656c69737446616365743a2057686974656c697374206c656e67746860008201527f2073686f756c64206265206c6172676572207468616e207a65726f0000000000602082015250565b6000611b1a603b83611989565b9150611b2582611abe565b604082019050919050565b60006020820190508181036000830152611b4981611b0d565b9050919050565b7f4e487b7100000000000000000000000000000000000000000000000000000000600052602260045260246000fd5b60006002820490506001821680611b9757607f821691505b602082108103611baa57611ba9611b50565b5b50919050565b7f57686974656c69737446616365743a2057686974656c697374206e616d65206360008201527f616e6e6f7420626520626c616e6b000000000000000000000000000000000000602082015250565b6000611c0c602e83611989565b9150611c1782611bb0565b604082019050919050565b60006020820190508181036000830152611c3b81611bff565b9050919050565b7f4e487b7100000000000000000000000000000000000000000000000000000000600052604160045260246000fd5b60008190508160005260206000209050919050565b60006020601f8301049050919050565b600082821b905092915050565b600060088302611cd37fffffffffffffffffffffffffffffffffffffffffffffffffffffffffffffffff82611c96565b611cdd8683611c96565b95508019841693508086168417925050509392505050565b6000819050919050565b6000611d1a611d15611d1084611795565b611cf5565b611795565b9050919050565b6000819050919050565b611d3483611cff565b611d48611d4082611d21565b848454611ca3565b825550505050565b600090565b611d5d611d50565b611d68818484611d2b565b505050565b5b81811015611d8c57611d81600082611d55565b600181019050611d6e565b5050565b601f821115611dd157611da281611c71565b611dab84611c86565b81016020851015611dba578190505b611dce611dc685611c86565b830182611d6d565b50505b505050565b600082821c905092915050565b6000611df460001984600802611dd6565b1980831691505092915050565b6000611e0d8383611de3565b9150826002028217905092915050565b611e26826115a7565b67ffffffffffffffff811115611e3f57611e3e611c42565b5b611e498254611b7f565b611e54828285611d90565b600060209050601f831160018114611e875760008415611e75578287015190505b611e7f8582611e01565b865550611ee7565b601f198416611e9586611c71565b60005b82811015611ebd57848901518255600182019150602085019450602081019050611e98565b86831015611eda5784890151611ed6601f891682611de3565b8355505b6001600288020188555050505b505050505050565b7f4e487b7100000000000000000000000000000000000000000000000000000000600052601160045260246000fd5b6000611f29826113cc565b9150611f34836113cc565b9250828203905063ffffffff811115611f5057611f4f611eef565b5b92915050565b7f4e487b7100000000000000000000000000000000000000000000000000000000600052603260045260246000fd5b600060208284031215611f9b57611f9a6113c2565b5b6000611fa984828501611451565b91505092915050565b6000611fbd82611795565b91507fffffffffffffffffffffffffffffffffffffffffffffffffffffffffffffffff8203611fef57611fee611eef565b5b600182019050919050565b7f4c696257686974656c6973743a20496e76616c69642052696768747300000000600082015250565b6000612030601c83611989565b915061203b82611ffa565b602082019050919050565b6000602082019050818103600083015261205f81612023565b9050919050565b600061207182611795565b915061207c83611795565b925082820190508082111561209457612093611eef565b5b92915050565b60006120a582611795565b91506120b083611795565b92508282039050818111156120c8576120c7611eef565b5b92915050565b7f4e487b7100000000000000000000000000000000000000000000000000000000600052603160045260246000fdfea26469706673582212205f672a3908aab794cfc910f36e53e7b05c6a717fb0a431e1f3b70d654ed7171b64736f6c63430008120033",
  "linkReferences": {},
  "deployedLinkReferences": {}
}